{
  "_format": "hh-sol-artifact-1",
  "contractName": "CrowdFunder",
  "sourceName": "contracts/CrowdFunder.sol",
  "address": "0x2DCA668091323BCd8AE2DaD22fE62411578E5B21",
  "abi": [
    {
      "anonymous": false,
      "inputs": [
        {
          "indexed": true,
          "internalType": "address",
          "name": "_campaignAddress",
          "type": "address"
        },
        {
          "indexed": true,
          "internalType": "address",
          "name": "_creator",
          "type": "address"
        },
        {
          "indexed": false,
          "internalType": "string",
          "name": "_title",
          "type": "string"
        },
        {
          "indexed": false,
          "internalType": "string",
          "name": "_description",
          "type": "string"
        },
        {
          "indexed": false,
          "internalType": "string",
          "name": "_category",
          "type": "string"
        },
        {
          "indexed": false,
          "internalType": "string",
          "name": "_tags",
          "type": "string"
        },
        {
          "indexed": false,
          "internalType": "string",
          "name": "_imageURI",
          "type": "string"
        }
      ],
      "name": "CampaignAdded",
      "type": "event"
    },
    {
      "anonymous": false,
      "inputs": [
        {
          "indexed": true,
          "internalType": "address",
          "name": "_funder",
          "type": "address"
        },
        {
          "indexed": true,
          "internalType": "address",
          "name": "_campaignAddress",
          "type": "address"
        },
        {
          "indexed": false,
          "internalType": "uint256",
          "name": "_val",
          "type": "uint256"
        },
        {
          "indexed": true,
          "internalType": "address",
          "name": "_c_creator",
          "type": "address"
        }
      ],
      "name": "CampaignFunded",
      "type": "event"
    },
    {
      "anonymous": false,
      "inputs": [
        {
          "indexed": false,
          "internalType": "address",
          "name": "_campaignAddress",
          "type": "address"
        },
        {
          "indexed": false,
          "internalType": "address",
          "name": "_creator",
          "type": "address"
        }
      ],
      "name": "CampaignPublished",
      "type": "event"
    },
    {
      "anonymous": false,
      "inputs": [
        {
          "indexed": true,
          "internalType": "address",
          "name": "_campaignAddress",
          "type": "address"
        }
      ],
      "name": "CampaignRemoved",
      "type": "event"
    },
    {
      "anonymous": false,
      "inputs": [
        {
          "indexed": true,
          "internalType": "address",
          "name": "_withdrawer",
          "type": "address"
        },
        {
          "indexed": true,
          "internalType": "address",
          "name": "_campaignAddress",
          "type": "address"
        },
        {
          "indexed": false,
          "internalType": "uint256",
          "name": "_val",
          "type": "uint256"
        },
        {
          "indexed": true,
          "internalType": "address",
          "name": "_c_creator",
          "type": "address"
        }
      ],
      "name": "CampaignShrunk",
      "type": "event"
    },
    {
      "anonymous": false,
      "inputs": [
        {
          "indexed": true,
          "internalType": "address",
          "name": "_address",
          "type": "address"
        },
        {
          "indexed": false,
          "internalType": "string",
          "name": "_username",
          "type": "string"
        },
        {
          "indexed": false,
          "internalType": "string",
          "name": "_email",
          "type": "string"
        },
        {
          "indexed": false,
          "internalType": "string",
          "name": "_shipAddress",
          "type": "string"
        },
        {
          "indexed": false,
          "internalType": "string",
          "name": "_pfp",
          "type": "string"
        }
      ],
      "name": "UserAdded",
      "type": "event"
    },
    {
      "inputs": [
        {
          "internalType": "string",
          "name": "_title",
          "type": "string"
        },
        {
          "internalType": "string",
          "name": "_description",
          "type": "string"
        },
        {
          "internalType": "string",
          "name": "_category",
          "type": "string"
        },
        {
          "internalType": "string",
          "name": "_tags",
          "type": "string"
        },
        {
          "internalType": "uint256",
          "name": "_goalAmount",
          "type": "uint256"
        },
        {
          "internalType": "uint256",
          "name": "_duration",
          "type": "uint256"
        },
        {
          "internalType": "string",
          "name": "_imageURI",
          "type": "string"
        }
      ],
      "name": "addCampaign",
      "outputs": [],
      "stateMutability": "nonpayable",
      "type": "function"
    },
    {
      "inputs": [
        {
          "internalType": "address",
          "name": "_address",
          "type": "address"
        },
        {
          "internalType": "string",
          "name": "_username",
          "type": "string"
        },
        {
          "internalType": "string",
          "name": "_email",
          "type": "string"
        },
        {
          "internalType": "string",
          "name": "_shipAddress",
          "type": "string"
        },
        {
          "internalType": "string",
          "name": "_pfp",
          "type": "string"
        }
      ],
      "name": "addUser",
      "outputs": [],
      "stateMutability": "nonpayable",
      "type": "function"
    },
    {
      "inputs": [],
      "name": "campaignCounter",
      "outputs": [
        {
          "internalType": "uint256",
          "name": "",
          "type": "uint256"
        }
      ],
      "stateMutability": "view",
      "type": "function"
    },
    {
      "inputs": [
        {
          "internalType": "address",
          "name": "_campaignAddress",
          "type": "address"
        }
      ],
      "name": "donateToCampaign",
      "outputs": [],
      "stateMutability": "payable",
      "type": "function"
    },
    {
      "inputs": [
        {
          "internalType": "address",
          "name": "_campaignAddress",
          "type": "address"
        },
        {
          "internalType": "address",
          "name": "_upkeepCreator",
          "type": "address"
        },
        {
          "internalType": "address",
          "name": "_linkToken",
          "type": "address"
        }
      ],
      "name": "publishCampaign",
      "outputs": [],
      "stateMutability": "nonpayable",
      "type": "function"
    },
    {
      "inputs": [
        {
          "internalType": "address",
          "name": "_campaignAddress",
          "type": "address"
        }
      ],
      "name": "refundFromCampaign",
      "outputs": [],
      "stateMutability": "nonpayable",
      "type": "function"
    },
    {
      "inputs": [
        {
          "internalType": "address",
          "name": "_campaignAddress",
          "type": "address"
        }
      ],
      "name": "removeCampaign",
      "outputs": [],
      "stateMutability": "nonpayable",
      "type": "function"
    }
  ],
  "bytecode": "0x608060405234801561001057600080fd5b50615f48806100206000396000f3fe6080604052600436106200007a5760003560e01c8063cd274a401162000055578063cd274a4014620000fb578063e4663a5b1462000129578063fab62a1d1462000157578063fca604d71462000185576200007a565b80637c6abc82146200007f578063ac3d15fb146200009f578063bbfade3e14620000cd575b600080fd5b6200009d600480360381019062000097919062000e22565b620001b5565b005b348015620000ac57600080fd5b50620000cb6004803603810190620000c5919062000e22565b6200042f565b005b348015620000da57600080fd5b50620000f96004803603810190620000f391906200105a565b620007aa565b005b3480156200010857600080fd5b50620001276004803603810190620001219190620011b5565b620008fd565b005b3480156200013657600080fd5b506200015560048036038101906200014f919062000e22565b6200095a565b005b3480156200016457600080fd5b506200018360048036038101906200017d9190620012b9565b62000c0a565b005b3480156200019257600080fd5b506200019d62000d7d565b604051620001ac919062001326565b60405180910390f35b6000600160008373ffffffffffffffffffffffffffffffffffffffff1673ffffffffffffffffffffffffffffffffffffffff16815260200190815260200160002060009054906101000a900473ffffffffffffffffffffffffffffffffffffffff1673ffffffffffffffffffffffffffffffffffffffff1663b145603e6040518163ffffffff1660e01b815260040160206040518083038186803b1580156200025d57600080fd5b505afa15801562000272573d6000803e3d6000fd5b505050506040513d601f19601f8201168201806040525081019062000298919062001388565b905060008273ffffffffffffffffffffffffffffffffffffffff163433604051602401620002c79190620013cb565b6040516020818303038152906040527e362a95000000000000000000000000000000000000000000000000000000007bffffffffffffffffffffffffffffffffffffffffffffffffffffffff19166020820180517bffffffffffffffffffffffffffffffffffffffffffffffffffffffff83818316178352505050506040516200035291906200146b565b60006040518083038185875af1925050503d806000811462000391576040519150601f19603f3d011682016040523d82523d6000602084013e62000396565b606091505b50509050801562000425578173ffffffffffffffffffffffffffffffffffffffff168373ffffffffffffffffffffffffffffffffffffffff163373ffffffffffffffffffffffffffffffffffffffff167f5f0f580a49a433afc0cd61faf31f545ff739f7874dd091ba39ecfd0383c8462c3460405162000417919062001326565b60405180910390a46200042a565b600080fd5b505050565b6000600160008373ffffffffffffffffffffffffffffffffffffffff1673ffffffffffffffffffffffffffffffffffffffff16815260200190815260200160002060009054906101000a900473ffffffffffffffffffffffffffffffffffffffff1673ffffffffffffffffffffffffffffffffffffffff1663b145603e6040518163ffffffff1660e01b815260040160206040518083038186803b158015620004d757600080fd5b505afa158015620004ec573d6000803e3d6000fd5b505050506040513d601f19601f8201168201806040525081019062000512919062001388565b90506000600160008473ffffffffffffffffffffffffffffffffffffffff1673ffffffffffffffffffffffffffffffffffffffff16815260200190815260200160002060009054906101000a900473ffffffffffffffffffffffffffffffffffffffff1673ffffffffffffffffffffffffffffffffffffffff166309917c50336040518263ffffffff1660e01b8152600401620005b09190620013cb565b60206040518083038186803b158015620005c957600080fd5b505afa158015620005de573d6000803e3d6000fd5b505050506040513d601f19601f820116820180604052508101906200060491906200149b565b9050600081116200061457600080fd5b60008373ffffffffffffffffffffffffffffffffffffffff1633604051602401620006409190620013cb565b6040516020818303038152906040527ffa89401a000000000000000000000000000000000000000000000000000000007bffffffffffffffffffffffffffffffffffffffffffffffffffffffff19166020820180517bffffffffffffffffffffffffffffffffffffffffffffffffffffffff8381831617835250505050604051620006cc91906200146b565b6000604051808303816000865af19150503d80600081146200070b576040519150601f19603f3d011682016040523d82523d6000602084013e62000710565b606091505b5050905080156200079f578273ffffffffffffffffffffffffffffffffffffffff168473ffffffffffffffffffffffffffffffffffffffff163373ffffffffffffffffffffffffffffffffffffffff167fe627e40c5979c5da4cf94d4b3ce15ce68a4103b1480ec047eec9736d39a0123d8560405162000791919062001326565b60405180910390a4620007a4565b600080fd5b50505050565b600030338c8c8c8c8c8c8c8c8c8c604051620007c69062000d9b565b620007dd9c9b9a99989796959493929190620015c8565b604051809103906000f080158015620007fa573d6000803e3d6000fd5b50905080600160008373ffffffffffffffffffffffffffffffffffffffff1673ffffffffffffffffffffffffffffffffffffffff16815260200190815260200160002060006101000a81548173ffffffffffffffffffffffffffffffffffffffff021916908373ffffffffffffffffffffffffffffffffffffffff1602179055503373ffffffffffffffffffffffffffffffffffffffff168173ffffffffffffffffffffffffffffffffffffffff167fce55db2394471943657aaa63a10999909b55d5948702c94255bb9ba41ad07e288d8d8d8d8d8d8b8b604051620008e898979695949392919062001690565b60405180910390a35050505050505050505050565b8473ffffffffffffffffffffffffffffffffffffffff167f10bb073e1ce0977d8bf7b641de8a59b02dd9c9d1c4badc9b30e5a48ac9fc8cb9858585856040516200094b949392919062001716565b60405180910390a25050505050565b3373ffffffffffffffffffffffffffffffffffffffff16600160008373ffffffffffffffffffffffffffffffffffffffff1673ffffffffffffffffffffffffffffffffffffffff16815260200190815260200160002060009054906101000a900473ffffffffffffffffffffffffffffffffffffffff1673ffffffffffffffffffffffffffffffffffffffff1663b145603e6040518163ffffffff1660e01b815260040160206040518083038186803b15801562000a1757600080fd5b505afa15801562000a2c573d6000803e3d6000fd5b505050506040513d601f19601f8201168201806040525081019062000a52919062001388565b73ffffffffffffffffffffffffffffffffffffffff161462000a7357600080fd5b6000600160008373ffffffffffffffffffffffffffffffffffffffff1673ffffffffffffffffffffffffffffffffffffffff16815260200190815260200160002060009054906101000a900473ffffffffffffffffffffffffffffffffffffffff1673ffffffffffffffffffffffffffffffffffffffff1663ce845d1d6040518163ffffffff1660e01b815260040160206040518083038186803b15801562000b1b57600080fd5b505afa15801562000b30573d6000803e3d6000fd5b505050506040513d601f19601f8201168201806040525081019062000b5691906200149b565b111562000b6257600080fd5b600160008273ffffffffffffffffffffffffffffffffffffffff1673ffffffffffffffffffffffffffffffffffffffff16815260200190815260200160002060006101000a81549073ffffffffffffffffffffffffffffffffffffffff02191690558073ffffffffffffffffffffffffffffffffffffffff167fd41d62ed7a46b1f2f4c0a4c0fa40c95bbe14a7d55034ff9817b743d6cb79353660405160405180910390a250565b60008373ffffffffffffffffffffffffffffffffffffffff1683838660405160240162000c3a939291906200177f565b6040516020818303038152906040527f5f700266000000000000000000000000000000000000000000000000000000007bffffffffffffffffffffffffffffffffffffffffffffffffffffffff19166020820180517bffffffffffffffffffffffffffffffffffffffffffffffffffffffff838183161783525050505060405162000cc691906200146b565b600060405180830381855af49150503d806000811462000d03576040519150601f19603f3d011682016040523d82523d6000602084013e62000d08565b606091505b50509050801562000d725762000d2b600160005462000d8390919063ffffffff16565b6000819055507f4ee76a1c89ccbef26f098ac48c95b7da87fe34749fea8758a71a3dc4ccc28bcd843360405162000d64929190620017bc565b60405180910390a162000d77565b600080fd5b50505050565b60005481565b6000818362000d93919062001818565b905092915050565b61469d806200187683390190565b6000604051905090565b600080fd5b600080fd5b600073ffffffffffffffffffffffffffffffffffffffff82169050919050565b600062000dea8262000dbd565b9050919050565b62000dfc8162000ddd565b811462000e0857600080fd5b50565b60008135905062000e1c8162000df1565b92915050565b60006020828403121562000e3b5762000e3a62000db3565b5b600062000e4b8482850162000e0b565b91505092915050565b600080fd5b600080fd5b600080fd5b60008083601f84011262000e7c5762000e7b62000e54565b5b8235905067ffffffffffffffff81111562000e9c5762000e9b62000e59565b5b60208301915083600182028301111562000ebb5762000eba62000e5e565b5b9250929050565b600080fd5b6000601f19601f8301169050919050565b7f4e487b7100000000000000000000000000000000000000000000000000000000600052604160045260246000fd5b62000f128262000ec7565b810181811067ffffffffffffffff8211171562000f345762000f3362000ed8565b5b80604052505050565b600062000f4962000da9565b905062000f57828262000f07565b919050565b600067ffffffffffffffff82111562000f7a5762000f7962000ed8565b5b62000f858262000ec7565b9050602081019050919050565b82818337600083830152505050565b600062000fb862000fb28462000f5c565b62000f3d565b90508281526020810184848401111562000fd75762000fd662000ec2565b5b62000fe484828562000f92565b509392505050565b600082601f83011262001004576200100362000e54565b5b81356200101684826020860162000fa1565b91505092915050565b6000819050919050565b62001034816200101f565b81146200104057600080fd5b50565b600081359050620010548162001029565b92915050565b60008060008060008060008060008060e08b8d03121562001080576200107f62000db3565b5b60008b013567ffffffffffffffff811115620010a157620010a062000db8565b5b620010af8d828e0162000e63565b9a509a505060208b013567ffffffffffffffff811115620010d557620010d462000db8565b5b620010e38d828e0162000e63565b985098505060408b013567ffffffffffffffff81111562001109576200110862000db8565b5b620011178d828e0162000fec565b96505060608b013567ffffffffffffffff8111156200113b576200113a62000db8565b5b620011498d828e0162000fec565b95505060806200115c8d828e0162001043565b94505060a06200116f8d828e0162001043565b93505060c08b013567ffffffffffffffff81111562001193576200119262000db8565b5b620011a18d828e0162000e63565b92509250509295989b9194979a5092959850565b600080600080600060a08688031215620011d457620011d362000db3565b5b6000620011e48882890162000e0b565b955050602086013567ffffffffffffffff81111562001208576200120762000db8565b5b620012168882890162000fec565b945050604086013567ffffffffffffffff8111156200123a576200123962000db8565b5b620012488882890162000fec565b935050606086013567ffffffffffffffff8111156200126c576200126b62000db8565b5b6200127a8882890162000fec565b925050608086013567ffffffffffffffff8111156200129e576200129d62000db8565b5b620012ac8882890162000fec565b9150509295509295909350565b600080600060608486031215620012d557620012d462000db3565b5b6000620012e58682870162000e0b565b9350506020620012f88682870162000e0b565b92505060406200130b8682870162000e0b565b9150509250925092565b62001320816200101f565b82525050565b60006020820190506200133d600083018462001315565b92915050565b6000620013508262000dbd565b9050919050565b620013628162001343565b81146200136e57600080fd5b50565b600081519050620013828162001357565b92915050565b600060208284031215620013a157620013a062000db3565b5b6000620013b18482850162001371565b91505092915050565b620013c58162000ddd565b82525050565b6000602082019050620013e26000830184620013ba565b92915050565b600081519050919050565b600081905092915050565b60005b838110156200141e57808201518184015260208101905062001401565b838111156200142e576000848401525b50505050565b60006200144182620013e8565b6200144d8185620013f3565b93506200145f818560208601620013fe565b80840191505092915050565b600062001479828462001434565b915081905092915050565b600081519050620014958162001029565b92915050565b600060208284031215620014b457620014b362000db3565b5b6000620014c48482850162001484565b91505092915050565b6000819050919050565b6000620014f8620014f2620014ec8462000dbd565b620014cd565b62000dbd565b9050919050565b60006200150c82620014d7565b9050919050565b60006200152082620014ff565b9050919050565b620015328162001513565b82525050565b600082825260208201905092915050565b600062001557838562001538565b93506200156683858462000f92565b620015718362000ec7565b840190509392505050565b600081519050919050565b600062001594826200157c565b620015a0818562001538565b9350620015b2818560208601620013fe565b620015bd8162000ec7565b840191505092915050565b600061012082019050620015e0600083018f620013ba565b620015ef602083018e62001527565b818103604083015262001604818c8e62001549565b905081810360608301526200161b818a8c62001549565b9050818103608083015262001631818962001587565b905081810360a083015262001647818862001587565b90506200165860c083018762001315565b6200166760e083018662001315565b8181036101008301526200167d81848662001549565b90509d9c50505050505050505050505050565b600060a0820190508181036000830152620016ad818a8c62001549565b90508181036020830152620016c481888a62001549565b90508181036040830152620016da818762001587565b90508181036060830152620016f0818662001587565b905081810360808301526200170781848662001549565b90509998505050505050505050565b6000608082019050818103600083015262001732818762001587565b9050818103602083015262001748818662001587565b905081810360408301526200175e818562001587565b9050818103606083015262001774818462001587565b905095945050505050565b6000606082019050620017966000830186620013ba565b620017a56020830185620013ba565b620017b46040830184620013ba565b949350505050565b6000604082019050620017d36000830185620013ba565b620017e26020830184620013ba565b9392505050565b7f4e487b7100000000000000000000000000000000000000000000000000000000600052601160045260246000fd5b600062001825826200101f565b915062001832836200101f565b9250827fffffffffffffffffffffffffffffffffffffffffffffffffffffffffffffffff038211156200186a5762001869620017e9565b5b82820190509291505056fe60e06040526000600b60006101000a81548160ff021916908360028111156200002d576200002c62000287565b5b02179055503480156200003f57600080fd5b506040516200469d3803806200469d8339818101604052810190620000659190620004f3565b60016000819055508873ffffffffffffffffffffffffffffffffffffffff1660808173ffffffffffffffffffffffffffffffffffffffff1660601b815250508773ffffffffffffffffffffffffffffffffffffffff1660a08173ffffffffffffffffffffffffffffffffffffffff1660601b815250508660019080519060200190620000f3929190620001d7565b5085600290805190602001906200010c929190620001d7565b50846003908051906020019062000125929190620001d7565b5083600690805190602001906200013e929190620001d7565b50826007819055504260c08181525050624f1a00821162000160578162000165565b624f1a005b6008819055506200018960085460c051620001bf60201b620027411790919060201c565b600a819055508060049080519060200190620001a7929190620001d7565b5060006009819055505050505050505050506200075e565b60008183620001cf91906200069c565b905092915050565b828054620001e59062000728565b90600052602060002090601f01602090048101928262000209576000855562000255565b82601f106200022457805160ff191683800117855562000255565b8280016001018555821562000255579182015b828111156200025457825182559160200191906001019062000237565b5b50905062000264919062000268565b5090565b5b808211156200028357600081600090555060010162000269565b5090565b7f4e487b7100000000000000000000000000000000000000000000000000000000600052602160045260246000fd5b6000604051905090565b600080fd5b600080fd5b600073ffffffffffffffffffffffffffffffffffffffff82169050919050565b6000620002f782620002ca565b9050919050565b6200030981620002ea565b81146200031557600080fd5b50565b6000815190506200032981620002fe565b92915050565b600080fd5b600080fd5b6000601f19601f8301169050919050565b7f4e487b7100000000000000000000000000000000000000000000000000000000600052604160045260246000fd5b620003848262000339565b810181811067ffffffffffffffff82111715620003a657620003a56200034a565b5b80604052505050565b6000620003bb620002b6565b9050620003c9828262000379565b919050565b600067ffffffffffffffff821115620003ec57620003eb6200034a565b5b620003f78262000339565b9050602081019050919050565b60005b838110156200042457808201518184015260208101905062000407565b8381111562000434576000848401525b50505050565b6000620004516200044b84620003ce565b620003af565b90508281526020810184848401111562000470576200046f62000334565b5b6200047d84828562000404565b509392505050565b600082601f8301126200049d576200049c6200032f565b5b8151620004af8482602086016200043a565b91505092915050565b6000819050919050565b620004cd81620004b8565b8114620004d957600080fd5b50565b600081519050620004ed81620004c2565b92915050565b60008060008060008060008060006101208a8c031215620005195762000518620002c0565b5b6000620005298c828d0162000318565b99505060206200053c8c828d0162000318565b98505060408a015167ffffffffffffffff81111562000560576200055f620002c5565b5b6200056e8c828d0162000485565b97505060608a015167ffffffffffffffff811115620005925762000591620002c5565b5b620005a08c828d0162000485565b96505060808a015167ffffffffffffffff811115620005c457620005c3620002c5565b5b620005d28c828d0162000485565b95505060a08a015167ffffffffffffffff811115620005f657620005f5620002c5565b5b620006048c828d0162000485565b94505060c0620006178c828d01620004dc565b93505060e06200062a8c828d01620004dc565b9250506101008a015167ffffffffffffffff8111156200064f576200064e620002c5565b5b6200065d8c828d0162000485565b9150509295985092959850929598565b7f4e487b7100000000000000000000000000000000000000000000000000000000600052601160045260246000fd5b6000620006a982620004b8565b9150620006b683620004b8565b9250827fffffffffffffffffffffffffffffffffffffffffffffffffffffffffffffffff03821115620006ee57620006ed6200066d565b5b828201905092915050565b7f4e487b7100000000000000000000000000000000000000000000000000000000600052602260045260246000fd5b600060028204905060018216806200074157607f821691505b60208210811415620007585762000757620006f9565b5b50919050565b60805160601c60a05160601c60c051613eae620007ef60003960008181611b4301526123ef0152600081816107a201528181610b4c01528181611578015281816116a5015281816118230152818161190301528181611a0601528181611ab701528181611bc401528181611def01528181611f9c01526123210152600081816106dd01526124750152613eae6000f3fe6080604052600436106101b65760003560e01c80636235887a116100ec578063bf66e2c81161008a578063ce845d1d11610064578063ce845d1d146105cd578063f301af42146105f8578063fa6ded391461063b578063fa89401a14610664576101b6565b8063bf66e2c81461054c578063c5cd507814610577578063ce2a0572146105a2576101b6565b80636e60eef7116100c65780636e60eef7146104b657806371aac7f9146104df57806399a8502d146104f6578063b145603e14610521576101b6565b80636235887a1461042457806363bd1d4a146104615780636e04ff0d14610478576101b6565b806329dcb0cf116101595780634d695bdb116101335780634d695bdb1461037c5780634ef89719146103a55780635f700266146103d057806360fa9a72146103f9576101b6565b806329dcb0cf146102fd5780634278ac8b146103285780634585e33b14610353576101b6565b80630fb5a6b4116101955780630fb5a6b41461023f57806315a46ee61461026a5780631c4b774b146102955780632636b945146102d2576101b6565b8062362a95146101bb57806309917c50146101d75780630c611f2414610214575b600080fd5b6101d560048036038101906101d09190612aae565b61068d565b005b3480156101e357600080fd5b506101fe60048036038101906101f99190612aae565b610b1e565b60405161020b9190612af4565b60405180910390f35b34801561022057600080fd5b50610229610b36565b6040516102369190612d64565b60405180910390f35b34801561024b57600080fd5b50610254610f30565b6040516102619190612af4565b60405180910390f35b34801561027657600080fd5b5061027f610f36565b60405161028c9190612dd0565b60405180910390f35b3480156102a157600080fd5b506102bc60048036038101906102b79190612e1e565b610fc4565b6040516102c991906130d4565b60405180910390f35b3480156102de57600080fd5b506102e7611421565b6040516102f49190612af4565b60405180910390f35b34801561030957600080fd5b50610312611427565b60405161031f9190612af4565b60405180910390f35b34801561033457600080fd5b5061033d61142d565b60405161034a9190612dd0565b60405180910390f35b34801561035f57600080fd5b5061037a6004803603810190610375919061315b565b6114bb565b005b34801561038857600080fd5b506103a3600480360381019061039e91906132d8565b611576565b005b3480156103b157600080fd5b506103ba611615565b6040516103c79190612dd0565b60405180910390f35b3480156103dc57600080fd5b506103f760048036038101906103f29190613321565b6116a3565b005b34801561040557600080fd5b5061040e6118ca565b60405161041b9190613383565b60405180910390f35b34801561043057600080fd5b5061044b60048036038101906104469190612e1e565b6118dd565b6040516104589190612af4565b60405180910390f35b34801561046d57600080fd5b50610476611901565b005b34801561048457600080fd5b5061049f600480360381019061049a919061343f565b611afb565b6040516104ad9291906134ec565b60405180910390f35b3480156104c257600080fd5b506104dd60048036038101906104d89190613629565b611bc2565b005b3480156104eb57600080fd5b506104f4611ded565b005b34801561050257600080fd5b5061050b611f0c565b6040516105189190612dd0565b60405180910390f35b34801561052d57600080fd5b50610536611f9a565b60405161054391906137a0565b60405180910390f35b34801561055857600080fd5b50610561611fbe565b60405161056e919061386a565b60405180910390f35b34801561058357600080fd5b5061058c612016565b6040516105999190612dd0565b60405180910390f35b3480156105ae57600080fd5b506105b76120a4565b6040516105c49190612dd0565b60405180910390f35b3480156105d957600080fd5b506105e2612132565b6040516105ef9190612af4565b60405180910390f35b34801561060457600080fd5b5061061f600480360381019061061a9190612e1e565b612138565b604051610632979695949392919061388c565b60405180910390f35b34801561064757600080fd5b50610662600480360381019061065d9190612e1e565b61231f565b005b34801561067057600080fd5b5061068b60048036038101906106869190612aae565b612425565b005b600260005414156106d3576040517f08c379a00000000000000000000000000000000000000000000000000000000081526004016106ca9061395c565b60405180910390fd5b60026000819055507f000000000000000000000000000000000000000000000000000000000000000073ffffffffffffffffffffffffffffffffffffffff163373ffffffffffffffffffffffffffffffffffffffff161461073357600080fd5b6000600281111561074757610746612bc6565b5b600b60009054906101000a900460ff16600281111561076957610768612bc6565b5b146107a0576040517faeb8874900000000000000000000000000000000000000000000000000000000815260040160405180910390fd5b7f000000000000000000000000000000000000000000000000000000000000000073ffffffffffffffffffffffffffffffffffffffff168173ffffffffffffffffffffffffffffffffffffffff161415610826576040517f1e4a120d00000000000000000000000000000000000000000000000000000000815260040160405180910390fd5b61083b3460095461274190919063ffffffff16565b6009819055506000600d6000348152602001908152602001600020600001541180156108885750600d600034815260200190815260200160002060070160009054906101000a900460ff16155b15610969576000600d6000348152602001908152602001600020600601541115610968576108d66001600d60003481526020019081526020016000206006015461275790919063ffffffff16565b600d600034815260200190815260200160002060060181905550600d6000348152602001908152602001600020600901819080600181540180825580915050600190039060005260206000200160009091909190916101000a81548173ffffffffffffffffffffffffffffffffffffffff021916908373ffffffffffffffffffffffffffffffffffffffff1602179055505b5b6000600d6000348152602001908152602001600020600001541180156109af5750600d600034815260200190815260200160002060070160009054906101000a900460ff165b15610a2c57600d6000348152602001908152602001600020600901819080600181540180825580915050600190039060005260206000200160009091909190916101000a81548173ffffffffffffffffffffffffffffffffffffffff021916908373ffffffffffffffffffffffffffffffffffffffff1602179055505b610a7e34600e60008473ffffffffffffffffffffffffffffffffffffffff1673ffffffffffffffffffffffffffffffffffffffff1681526020019081526020016000205461274190919063ffffffff16565b600e60008373ffffffffffffffffffffffffffffffffffffffff1673ffffffffffffffffffffffffffffffffffffffff168152602001908152602001600020819055508073ffffffffffffffffffffffffffffffffffffffff167fe76ad748537a48e778fef43dda4a6bd1b50cd62385f9f21a9ca267492355120834600954604051610b0b92919061397c565b60405180910390a2600160008190555050565b600e6020528060005260406000206000915090505481565b610b3e61276d565b6040518061018001604052807f000000000000000000000000000000000000000000000000000000000000000073ffffffffffffffffffffffffffffffffffffffff16815260200160018054610b93906139d4565b80601f0160208091040260200160405190810160405280929190818152602001828054610bbf906139d4565b8015610c0c5780601f10610be157610100808354040283529160200191610c0c565b820191906000526020600020905b815481529060010190602001808311610bef57829003601f168201915b5050505050815260200160028054610c23906139d4565b80601f0160208091040260200160405190810160405280929190818152602001828054610c4f906139d4565b8015610c9c5780601f10610c7157610100808354040283529160200191610c9c565b820191906000526020600020905b815481529060010190602001808311610c7f57829003601f168201915b5050505050815260200160038054610cb3906139d4565b80601f0160208091040260200160405190810160405280929190818152602001828054610cdf906139d4565b8015610d2c5780601f10610d0157610100808354040283529160200191610d2c565b820191906000526020600020905b815481529060010190602001808311610d0f57829003601f168201915b5050505050815260200160068054610d43906139d4565b80601f0160208091040260200160405190810160405280929190818152602001828054610d6f906139d4565b8015610dbc5780601f10610d9157610100808354040283529160200191610dbc565b820191906000526020600020905b815481529060010190602001808311610d9f57829003601f168201915b50505050508152602001600754815260200160085481526020016009548152602001600b60009054906101000a900460ff166002811115610e0057610dff612bc6565b5b815260200160048054610e12906139d4565b80601f0160208091040260200160405190810160405280929190818152602001828054610e3e906139d4565b8015610e8b5780601f10610e6057610100808354040283529160200191610e8b565b820191906000526020600020905b815481529060010190602001808311610e6e57829003601f168201915b5050505050815260200160058054610ea2906139d4565b80601f0160208091040260200160405190810160405280929190818152602001828054610ece906139d4565b8015610f1b5780601f10610ef057610100808354040283529160200191610f1b565b820191906000526020600020905b815481529060010190602001808311610efe57829003601f168201915b50505050508152602001600a54815250905090565b60085481565b60058054610f43906139d4565b80601f0160208091040260200160405190810160405280929190818152602001828054610f6f906139d4565b8015610fbc5780601f10610f9157610100808354040283529160200191610fbc565b820191906000526020600020905b815481529060010190602001808311610f9f57829003601f168201915b505050505081565b610fcc6127f6565b600d60008381526020019081526020016000206040518061014001604052908160008201548152602001600182018054611005906139d4565b80601f0160208091040260200160405190810160405280929190818152602001828054611031906139d4565b801561107e5780601f106110535761010080835404028352916020019161107e565b820191906000526020600020905b81548152906001019060200180831161106157829003601f168201915b50505050508152602001600282018054611097906139d4565b80601f01602080910402602001604051908101604052809291908181526020018280546110c3906139d4565b80156111105780601f106110e557610100808354040283529160200191611110565b820191906000526020600020905b8154815290600101906020018083116110f357829003601f168201915b50505050508152602001600382018054611129906139d4565b80601f0160208091040260200160405190810160405280929190818152602001828054611155906139d4565b80156111a25780601f10611177576101008083540402835291602001916111a2565b820191906000526020600020905b81548152906001019060200180831161118557829003601f168201915b5050505050815260200160048201805480602002602001604051908101604052809291908181526020016000905b8282101561127c5783829060005260206000200180546111ef906139d4565b80601f016020809104026020016040519081016040528092919081815260200182805461121b906139d4565b80156112685780601f1061123d57610100808354040283529160200191611268565b820191906000526020600020905b81548152906001019060200180831161124b57829003601f168201915b5050505050815260200190600101906111d0565b50505050815260200160058201548152602001600682015481526020016007820160009054906101000a900460ff1615151515815260200160088201805480602002602001604051908101604052809291908181526020016000905b828210156113845783829060005260206000200180546112f7906139d4565b80601f0160208091040260200160405190810160405280929190818152602001828054611323906139d4565b80156113705780601f1061134557610100808354040283529160200191611370565b820191906000526020600020905b81548152906001019060200180831161135357829003601f168201915b5050505050815260200190600101906112d8565b5050505081526020016009820180548060200260200160405190810160405280929190818152602001828054801561141157602002820191906000526020600020905b8160009054906101000a900473ffffffffffffffffffffffffffffffffffffffff1673ffffffffffffffffffffffffffffffffffffffff16815260200190600101908083116113c7575b5050505050815250509050919050565b60075481565b600a5481565b6003805461143a906139d4565b80601f0160208091040260200160405190810160405280929190818152602001828054611466906139d4565b80156114b35780601f10611488576101008083540402835291602001916114b3565b820191906000526020600020905b81548152906001019060200180831161149657829003601f168201915b505050505081565b60006114d560405180602001604052806000815250611afb565b5090508061150f576040517fbc7a0a6300000000000000000000000000000000000000000000000000000000815260040160405180910390fd5b6001600b60006101000a81548160ff0219169083600281111561153557611534612bc6565b5b02179055507f5cf8cd2bd40f758a95257bed666285eb82801f1bf9223b8ec1481e510ba2e82d306040516115699190613a15565b60405180910390a1505050565b7f000000000000000000000000000000000000000000000000000000000000000073ffffffffffffffffffffffffffffffffffffffff163373ffffffffffffffffffffffffffffffffffffffff16146115fb576040517fb167e90c00000000000000000000000000000000000000000000000000000000815260040160405180910390fd5b806005908051906020019061161192919061284b565b5050565b60028054611622906139d4565b80601f016020809104026020016040519081016040528092919081815260200182805461164e906139d4565b801561169b5780601f106116705761010080835404028352916020019161169b565b820191906000526020600020905b81548152906001019060200180831161167e57829003601f168201915b505050505081565b7f000000000000000000000000000000000000000000000000000000000000000073ffffffffffffffffffffffffffffffffffffffff163373ffffffffffffffffffffffffffffffffffffffff1614611728576040517fb167e90c00000000000000000000000000000000000000000000000000000000815260040160405180910390fd5b6000839050600083905060008173ffffffffffffffffffffffffffffffffffffffff166370a08231876040518263ffffffff1660e01b815260040161176d9190613a15565b60206040518083038186803b15801561178557600080fd5b505afa158015611799573d6000803e3d6000fd5b505050506040513d601f19601f820116820180604052508101906117bd9190613a45565b14156117fe576040517f08c379a00000000000000000000000000000000000000000000000000000000081526004016117f590613abe565b60405180910390fd5b8173ffffffffffffffffffffffffffffffffffffffff16634c7e9be36001856207a1207f0000000000000000000000000000000000000000000000000000000000000000671bc16d674ec800006040518663ffffffff1660e01b815260040161186b959493929190613cbc565b602060405180830381600087803b15801561188557600080fd5b505af1158015611899573d6000803e3d6000fd5b505050506040513d601f19601f820116820180604052508101906118bd9190613a45565b600c819055505050505050565b600b60009054906101000a900460ff1681565b600f81815481106118ed57600080fd5b906000526020600020016000915090505481565b7f000000000000000000000000000000000000000000000000000000000000000073ffffffffffffffffffffffffffffffffffffffff163373ffffffffffffffffffffffffffffffffffffffff1614611986576040517fb167e90c00000000000000000000000000000000000000000000000000000000815260040160405180910390fd5b6001600281111561199a57611999612bc6565b5b600b60009054906101000a900460ff1660028111156119bc576119bb612bc6565b5b146119f3576040517faeb8874900000000000000000000000000000000000000000000000000000000815260040160405180910390fd5b60006009549050600060098190555060007f000000000000000000000000000000000000000000000000000000000000000073ffffffffffffffffffffffffffffffffffffffff1682604051611a4890613d81565b60006040518083038185875af1925050503d8060008114611a85576040519150601f19603f3d011682016040523d82523d6000602084013e611a8a565b606091505b505090508015611af2577fba5e837743d81ad0e6deb16089dbb65b549fdda8ad802fd8d4822884d70dc8b27f000000000000000000000000000000000000000000000000000000000000000030604051611ae5929190613d96565b60405180910390a1611af7565b600080fd5b5050565b600060606000806002811115611b1457611b13612bc6565b5b600b60009054906101000a900460ff166002811115611b3657611b35612bc6565b5b1490506000600854611b717f00000000000000000000000000000000000000000000000000000000000000004261275790919063ffffffff16565b119050808015611b7e5750815b9350836040518060400160405280600381526020017f3078300000000000000000000000000000000000000000000000000000000000815250935093505050915091565b7f000000000000000000000000000000000000000000000000000000000000000073ffffffffffffffffffffffffffffffffffffffff163373ffffffffffffffffffffffffffffffffffffffff1614611c47576040517fb167e90c00000000000000000000000000000000000000000000000000000000815260040160405180910390fd5b6000600d60008b81526020019081526020016000206000015414611c6a57600080fd5b600f89908060018154018082558091505060019003906000526020600020016000909190919091505560606040518061014001604052808b81526020018a8152602001898152602001888152602001878152602001868152602001858152602001841515815260200183815260200182815250600d60008c8152602001908152602001600020600082015181600001556020820151816001019080519060200190611d1692919061284b565b506040820151816002019080519060200190611d3392919061284b565b506060820151816003019080519060200190611d5092919061284b565b506080820151816004019080519060200190611d6d9291906128d1565b5060a0820151816005015560c0820151816006015560e08201518160070160006101000a81548160ff021916908315150217905550610100820151816008019080519060200190611dbf9291906128d1565b50610120820151816009019080519060200190611ddd929190612931565b5090505050505050505050505050565b7f000000000000000000000000000000000000000000000000000000000000000073ffffffffffffffffffffffffffffffffffffffff163373ffffffffffffffffffffffffffffffffffffffff1614611e72576040517fb167e90c00000000000000000000000000000000000000000000000000000000815260040160405180910390fd5b60016002811115611e8657611e85612bc6565b5b600b60009054906101000a900460ff166002811115611ea857611ea7612bc6565b5b1415611eb357600080fd5b6002600b60006101000a81548160ff02191690836002811115611ed957611ed8612bc6565b5b02179055507fb83ebe09f40e9293bdea1d6567fae3175119d3d0ff13c4b4df15994837dd7f5160405160405180910390a1565b60018054611f19906139d4565b80601f0160208091040260200160405190810160405280929190818152602001828054611f45906139d4565b8015611f925780601f10611f6757610100808354040283529160200191611f92565b820191906000526020600020905b815481529060010190602001808311611f7557829003601f168201915b505050505081565b7f000000000000000000000000000000000000000000000000000000000000000081565b6060600f80548060200260200160405190810160405280929190818152602001828054801561200c57602002820191906000526020600020905b815481526020019060010190808311611ff8575b5050505050905090565b60068054612023906139d4565b80601f016020809104026020016040519081016040528092919081815260200182805461204f906139d4565b801561209c5780601f106120715761010080835404028352916020019161209c565b820191906000526020600020905b81548152906001019060200180831161207f57829003601f168201915b505050505081565b600480546120b1906139d4565b80601f01602080910402602001604051908101604052809291908181526020018280546120dd906139d4565b801561212a5780601f106120ff5761010080835404028352916020019161212a565b820191906000526020600020905b81548152906001019060200180831161210d57829003601f168201915b505050505081565b60095481565b600d602052806000526040600020600091509050806000015490806001018054612161906139d4565b80601f016020809104026020016040519081016040528092919081815260200182805461218d906139d4565b80156121da5780601f106121af576101008083540402835291602001916121da565b820191906000526020600020905b8154815290600101906020018083116121bd57829003601f168201915b5050505050908060020180546121ef906139d4565b80601f016020809104026020016040519081016040528092919081815260200182805461221b906139d4565b80156122685780601f1061223d57610100808354040283529160200191612268565b820191906000526020600020905b81548152906001019060200180831161224b57829003601f168201915b50505050509080600301805461227d906139d4565b80601f01602080910402602001604051908101604052809291908181526020018280546122a9906139d4565b80156122f65780601f106122cb576101008083540402835291602001916122f6565b820191906000526020600020905b8154815290600101906020018083116122d957829003601f168201915b5050505050908060050154908060060154908060070160009054906101000a900460ff16905087565b7f000000000000000000000000000000000000000000000000000000000000000073ffffffffffffffffffffffffffffffffffffffff163373ffffffffffffffffffffffffffffffffffffffff16146123a4576040517fb167e90c00000000000000000000000000000000000000000000000000000000815260040160405180910390fd5b624f1a006123bd8260085461274190919063ffffffff16565b116123dc576123d78160085461274190919063ffffffff16565b6123e1565b624f1a005b60088190555061241c6008547f000000000000000000000000000000000000000000000000000000000000000061274190919063ffffffff16565b600a8190555050565b6002600054141561246b576040517f08c379a00000000000000000000000000000000000000000000000000000000081526004016124629061395c565b60405180910390fd5b60026000819055507f000000000000000000000000000000000000000000000000000000000000000073ffffffffffffffffffffffffffffffffffffffff163373ffffffffffffffffffffffffffffffffffffffff16146124cb57600080fd5b600160028111156124df576124de612bc6565b5b600b60009054906101000a900460ff16600281111561250157612500612bc6565b5b1415612539576040517faeb8874900000000000000000000000000000000000000000000000000000000815260040160405180910390fd5b6000600e60008373ffffffffffffffffffffffffffffffffffffffff1673ffffffffffffffffffffffffffffffffffffffff1681526020019081526020016000205414156125b3576040517f4cc8b68700000000000000000000000000000000000000000000000000000000815260040160405180910390fd5b6000600e60008373ffffffffffffffffffffffffffffffffffffffff1673ffffffffffffffffffffffffffffffffffffffff168152602001908152602001600020549050806009541015612633576040517f4d83c95000000000000000000000000000000000000000000000000000000000815260040160405180910390fd5b6126488160095461275790919063ffffffff16565b60098190555060008273ffffffffffffffffffffffffffffffffffffffff168260405161267490613d81565b60006040518083038185875af1925050503d80600081146126b1576040519150601f19603f3d011682016040523d82523d6000602084013e6126b6565b606091505b50509050806126f1576040517f0520edd000000000000000000000000000000000000000000000000000000000815260040160405180910390fd5b600e60008473ffffffffffffffffffffffffffffffffffffffff1673ffffffffffffffffffffffffffffffffffffffff168152602001908152602001600020600090555050600160008190555050565b6000818361274f9190613dee565b905092915050565b600081836127659190613e44565b905092915050565b604051806101800160405280600073ffffffffffffffffffffffffffffffffffffffff16815260200160608152602001606081526020016060815260200160608152602001600081526020016000815260200160008152602001600060028111156127db576127da612bc6565b5b81526020016060815260200160608152602001600081525090565b6040518061014001604052806000815260200160608152602001606081526020016060815260200160608152602001600081526020016000815260200160001515815260200160608152602001606081525090565b828054612857906139d4565b90600052602060002090601f01602090048101928261287957600085556128c0565b82601f1061289257805160ff19168380011785556128c0565b828001600101855582156128c0579182015b828111156128bf5782518255916020019190600101906128a4565b5b5090506128cd91906129bb565b5090565b828054828255906000526020600020908101928215612920579160200282015b8281111561291f57825182908051906020019061290f92919061284b565b50916020019190600101906128f1565b5b50905061292d91906129d8565b5090565b8280548282559060005260206000209081019282156129aa579160200282015b828111156129a95782518260006101000a81548173ffffffffffffffffffffffffffffffffffffffff021916908373ffffffffffffffffffffffffffffffffffffffff16021790555091602001919060010190612951565b5b5090506129b791906129bb565b5090565b5b808211156129d45760008160009055506001016129bc565b5090565b5b808211156129f857600081816129ef91906129fc565b506001016129d9565b5090565b508054612a08906139d4565b6000825580601f10612a1a5750612a39565b601f016020900490600052602060002090810190612a3891906129bb565b5b50565b6000604051905090565b600080fd5b600080fd5b600073ffffffffffffffffffffffffffffffffffffffff82169050919050565b6000612a7b82612a50565b9050919050565b612a8b81612a70565b8114612a9657600080fd5b50565b600081359050612aa881612a82565b92915050565b600060208284031215612ac457612ac3612a46565b5b6000612ad284828501612a99565b91505092915050565b6000819050919050565b612aee81612adb565b82525050565b6000602082019050612b096000830184612ae5565b92915050565b612b1881612a70565b82525050565b600081519050919050565b600082825260208201905092915050565b60005b83811015612b58578082015181840152602081019050612b3d565b83811115612b67576000848401525b50505050565b6000601f19601f8301169050919050565b6000612b8982612b1e565b612b938185612b29565b9350612ba3818560208601612b3a565b612bac81612b6d565b840191505092915050565b612bc081612adb565b82525050565b7f4e487b7100000000000000000000000000000000000000000000000000000000600052602160045260246000fd5b60038110612c0657612c05612bc6565b5b50565b6000819050612c1782612bf5565b919050565b6000612c2782612c09565b9050919050565b612c3781612c1c565b82525050565b600061018083016000830151612c566000860182612b0f565b5060208301518482036020860152612c6e8282612b7e565b91505060408301518482036040860152612c888282612b7e565b91505060608301518482036060860152612ca28282612b7e565b91505060808301518482036080860152612cbc8282612b7e565b91505060a0830151612cd160a0860182612bb7565b5060c0830151612ce460c0860182612bb7565b5060e0830151612cf760e0860182612bb7565b50610100830151612d0c610100860182612c2e565b50610120830151848203610120860152612d268282612b7e565b915050610140830151848203610140860152612d428282612b7e565b915050610160830151612d59610160860182612bb7565b508091505092915050565b60006020820190508181036000830152612d7e8184612c3d565b905092915050565b600082825260208201905092915050565b6000612da282612b1e565b612dac8185612d86565b9350612dbc818560208601612b3a565b612dc581612b6d565b840191505092915050565b60006020820190508181036000830152612dea8184612d97565b905092915050565b612dfb81612adb565b8114612e0657600080fd5b50565b600081359050612e1881612df2565b92915050565b600060208284031215612e3457612e33612a46565b5b6000612e4284828501612e09565b91505092915050565b600081519050919050565b600082825260208201905092915050565b6000819050602082019050919050565b6000612e838383612b7e565b905092915050565b6000602082019050919050565b6000612ea382612e4b565b612ead8185612e56565b935083602082028501612ebf85612e67565b8060005b85811015612efb5784840389528151612edc8582612e77565b9450612ee783612e8b565b925060208a01995050600181019050612ec3565b50829750879550505050505092915050565b60008115159050919050565b612f2281612f0d565b82525050565b600081519050919050565b600082825260208201905092915050565b6000819050602082019050919050565b6000612f608383612b0f565b60208301905092915050565b6000602082019050919050565b6000612f8482612f28565b612f8e8185612f33565b9350612f9983612f44565b8060005b83811015612fca578151612fb18882612f54565b9750612fbc83612f6c565b925050600181019050612f9d565b5085935050505092915050565b600061014083016000830151612ff06000860182612bb7565b50602083015184820360208601526130088282612b7e565b915050604083015184820360408601526130228282612b7e565b9150506060830151848203606086015261303c8282612b7e565b915050608083015184820360808601526130568282612e98565b91505060a083015161306b60a0860182612bb7565b5060c083015161307e60c0860182612bb7565b5060e083015161309160e0860182612f19565b506101008301518482036101008601526130ab8282612e98565b9150506101208301518482036101208601526130c78282612f79565b9150508091505092915050565b600060208201905081810360008301526130ee8184612fd7565b905092915050565b600080fd5b600080fd5b600080fd5b60008083601f84011261311b5761311a6130f6565b5b8235905067ffffffffffffffff811115613138576131376130fb565b5b60208301915083600182028301111561315457613153613100565b5b9250929050565b6000806020838503121561317257613171612a46565b5b600083013567ffffffffffffffff8111156131905761318f612a4b565b5b61319c85828601613105565b92509250509250929050565b600080fd5b7f4e487b7100000000000000000000000000000000000000000000000000000000600052604160045260246000fd5b6131e582612b6d565b810181811067ffffffffffffffff82111715613204576132036131ad565b5b80604052505050565b6000613217612a3c565b905061322382826131dc565b919050565b600067ffffffffffffffff821115613243576132426131ad565b5b61324c82612b6d565b9050602081019050919050565b82818337600083830152505050565b600061327b61327684613228565b61320d565b905082815260208101848484011115613297576132966131a8565b5b6132a2848285613259565b509392505050565b600082601f8301126132bf576132be6130f6565b5b81356132cf848260208601613268565b91505092915050565b6000602082840312156132ee576132ed612a46565b5b600082013567ffffffffffffffff81111561330c5761330b612a4b565b5b613318848285016132aa565b91505092915050565b60008060006060848603121561333a57613339612a46565b5b600061334886828701612a99565b935050602061335986828701612a99565b925050604061336a86828701612a99565b9150509250925092565b61337d81612c1c565b82525050565b60006020820190506133986000830184613374565b92915050565b600067ffffffffffffffff8211156133b9576133b86131ad565b5b6133c282612b6d565b9050602081019050919050565b60006133e26133dd8461339e565b61320d565b9050828152602081018484840111156133fe576133fd6131a8565b5b613409848285613259565b509392505050565b600082601f830112613426576134256130f6565b5b81356134368482602086016133cf565b91505092915050565b60006020828403121561345557613454612a46565b5b600082013567ffffffffffffffff81111561347357613472612a4b565b5b61347f84828501613411565b91505092915050565b61349181612f0d565b82525050565b600081519050919050565b600082825260208201905092915050565b60006134be82613497565b6134c881856134a2565b93506134d8818560208601612b3a565b6134e181612b6d565b840191505092915050565b60006040820190506135016000830185613488565b818103602083015261351381846134b3565b90509392505050565b600067ffffffffffffffff821115613537576135366131ad565b5b602082029050602081019050919050565b600061355b6135568461351c565b61320d565b9050808382526020820190506020840283018581111561357e5761357d613100565b5b835b818110156135c557803567ffffffffffffffff8111156135a3576135a26130f6565b5b8086016135b089826132aa565b85526020850194505050602081019050613580565b5050509392505050565b600082601f8301126135e4576135e36130f6565b5b81356135f4848260208601613548565b91505092915050565b61360681612f0d565b811461361157600080fd5b50565b600081359050613623816135fd565b92915050565b60008060008060008060008060006101208a8c03121561364c5761364b612a46565b5b600061365a8c828d01612e09565b99505060208a013567ffffffffffffffff81111561367b5761367a612a4b565b5b6136878c828d016132aa565b98505060408a013567ffffffffffffffff8111156136a8576136a7612a4b565b5b6136b48c828d016132aa565b97505060608a013567ffffffffffffffff8111156136d5576136d4612a4b565b5b6136e18c828d016132aa565b96505060808a013567ffffffffffffffff81111561370257613701612a4b565b5b61370e8c828d016135cf565b95505060a061371f8c828d01612e09565b94505060c06137308c828d01612e09565b93505060e06137418c828d01613614565b9250506101008a013567ffffffffffffffff81111561376357613762612a4b565b5b61376f8c828d016135cf565b9150509295985092959850929598565b600061378a82612a50565b9050919050565b61379a8161377f565b82525050565b60006020820190506137b56000830184613791565b92915050565b600081519050919050565b600082825260208201905092915050565b6000819050602082019050919050565b60006137f38383612bb7565b60208301905092915050565b6000602082019050919050565b6000613817826137bb565b61382181856137c6565b935061382c836137d7565b8060005b8381101561385d57815161384488826137e7565b975061384f836137ff565b925050600181019050613830565b5085935050505092915050565b60006020820190508181036000830152613884818461380c565b905092915050565b600060e0820190506138a1600083018a612ae5565b81810360208301526138b38189612d97565b905081810360408301526138c78188612d97565b905081810360608301526138db8187612d97565b90506138ea6080830186612ae5565b6138f760a0830185612ae5565b61390460c0830184613488565b98975050505050505050565b7f5265656e7472616e637947756172643a207265656e7472616e742063616c6c00600082015250565b6000613946601f83612d86565b915061395182613910565b602082019050919050565b6000602082019050818103600083015261397581613939565b9050919050565b60006040820190506139916000830185612ae5565b61399e6020830184612ae5565b9392505050565b7f4e487b7100000000000000000000000000000000000000000000000000000000600052602260045260246000fd5b600060028204905060018216806139ec57607f821691505b60208210811415613a00576139ff6139a5565b5b50919050565b613a0f81612a70565b82525050565b6000602082019050613a2a6000830184613a06565b92915050565b600081519050613a3f81612df2565b92915050565b600060208284031215613a5b57613a5a612a46565b5b6000613a6984828501613a30565b91505092915050565b7f6e6f2066756e6473000000000000000000000000000000000000000000000000600082015250565b6000613aa8600883612d86565b9150613ab382613a72565b602082019050919050565b60006020820190508181036000830152613ad781613a9b565b9050919050565b60008190508160005260206000209050919050565b60008154613b00816139d4565b613b0a8186612d86565b94506001821660008114613b255760018114613b3757613b6a565b60ff1983168652602086019350613b6a565b613b4085613ade565b60005b83811015613b6257815481890152600182019150602081019050613b43565b808801955050505b50505092915050565b7f3078000000000000000000000000000000000000000000000000000000000000600082015250565b6000613ba96002836134a2565b9150613bb482613b73565b602082019050919050565b6000819050919050565b600063ffffffff82169050919050565b6000819050919050565b6000613bfe613bf9613bf484613bbf565b613bd9565b613bc9565b9050919050565b613c0e81613be3565b82525050565b6000613c2f613c2a613c2584612a50565b613bd9565b612a50565b9050919050565b6000613c4182613c14565b9050919050565b6000613c5382613c36565b9050919050565b613c6381613c48565b82525050565b6000819050919050565b60006bffffffffffffffffffffffff82169050919050565b6000613ca6613ca1613c9c84613c69565b613bd9565b613c73565b9050919050565b613cb681613c8b565b82525050565b6000610100820190508181036000830152613cd78188613af3565b90508181036020830152613cea81613b9c565b9050613cf96040830187613a06565b613d066060830186613c05565b613d136080830185613c5a565b81810360a0830152613d2481613b9c565b905081810360c0830152613d3781613b9c565b9050613d4660e0830184613cad565b9695505050505050565b600081905092915050565b50565b6000613d6b600083613d50565b9150613d7682613d5b565b600082019050919050565b6000613d8c82613d5e565b9150819050919050565b6000604082019050613dab6000830185613c5a565b613db86020830184613a06565b9392505050565b7f4e487b7100000000000000000000000000000000000000000000000000000000600052601160045260246000fd5b6000613df982612adb565b9150613e0483612adb565b9250827fffffffffffffffffffffffffffffffffffffffffffffffffffffffffffffffff03821115613e3957613e38613dbf565b5b828201905092915050565b6000613e4f82612adb565b9150613e5a83612adb565b925082821015613e6d57613e6c613dbf565b5b82820390509291505056fea2646970667358221220bf76514dc134f9053e5095e966152b4cd3392dfd4f2e403a92e4715ab31c05e364736f6c63430008080033a26469706673582212202a7e09bb088170d1479d6fff3801b688aae73f7d81abd4e4920966cc7c4b1d7b64736f6c63430008080033",
  "linkReferences": {},
  "deployedLinkReferences": {}
}