{
  "_format": "hh-sol-artifact-1",
  "contractName": "CrowdFunder",
  "sourceName": "contracts/CrowdFunder.sol",
  "address": "0x34eB557D924DE7fFf19C56036A23Eeaef48dBE3d",
  "abi": [
    {
      "inputs": [],
      "name": "Crf_CSA",
      "type": "error"
    },
    {
      "inputs": [],
      "name": "Crf_DonF",
      "type": "error"
    },
    {
      "inputs": [],
      "name": "Crf_NotCrtr",
      "type": "error"
    },
    {
      "inputs": [],
      "name": "Crf_PubF",
      "type": "error"
    },
    {
      "inputs": [],
      "name": "Crf_RefF",
      "type": "error"
    },
    {
      "anonymous": false,
      "inputs": [
        {
          "indexed": true,
          "internalType": "address",
          "name": "_campaignAddress",
          "type": "address"
        },
        {
          "indexed": true,
          "internalType": "address",
          "name": "_creator",
          "type": "address"
        },
        {
          "indexed": false,
          "internalType": "string",
          "name": "_title",
          "type": "string"
        },
        {
          "indexed": false,
          "internalType": "string",
          "name": "_description",
          "type": "string"
        },
        {
          "indexed": false,
          "internalType": "string",
          "name": "_category",
          "type": "string"
        },
        {
          "indexed": false,
          "internalType": "string",
          "name": "_tags",
          "type": "string"
        }
      ],
      "name": "CampaignAdded",
      "type": "event"
    },
    {
      "anonymous": false,
      "inputs": [
        {
          "indexed": true,
          "internalType": "address",
          "name": "_funder",
          "type": "address"
        },
        {
          "indexed": true,
          "internalType": "address",
          "name": "_campaignAddress",
          "type": "address"
        },
        {
          "indexed": false,
          "internalType": "uint256",
          "name": "_val",
          "type": "uint256"
        }
      ],
      "name": "CampaignFunded",
      "type": "event"
    },
    {
      "anonymous": false,
      "inputs": [
        {
          "indexed": false,
          "internalType": "address",
          "name": "_campaignAddress",
          "type": "address"
        },
        {
          "indexed": false,
          "internalType": "address",
          "name": "_creator",
          "type": "address"
        }
      ],
      "name": "CampaignPublished",
      "type": "event"
    },
    {
      "anonymous": false,
      "inputs": [
        {
          "indexed": true,
          "internalType": "address",
          "name": "_campaignAddress",
          "type": "address"
        }
      ],
      "name": "CampaignRemoved",
      "type": "event"
    },
    {
      "anonymous": false,
      "inputs": [
        {
          "indexed": true,
          "internalType": "address",
          "name": "_withdrawer",
          "type": "address"
        },
        {
          "indexed": true,
          "internalType": "address",
          "name": "_campaignAddress",
          "type": "address"
        },
        {
          "indexed": false,
          "internalType": "uint256",
          "name": "_val",
          "type": "uint256"
        }
      ],
      "name": "CampaignShrunk",
      "type": "event"
    },
    {
      "anonymous": false,
      "inputs": [
        {
          "indexed": true,
          "internalType": "address",
          "name": "_address",
          "type": "address"
        },
        {
          "indexed": false,
          "internalType": "string",
          "name": "_username",
          "type": "string"
        },
        {
          "indexed": false,
          "internalType": "string",
          "name": "_twitter",
          "type": "string"
        },
        {
          "indexed": false,
          "internalType": "string",
          "name": "_email",
          "type": "string"
        },
        {
          "indexed": false,
          "internalType": "string",
          "name": "_homeAddress",
          "type": "string"
        },
        {
          "indexed": false,
          "internalType": "string",
          "name": "_pfp",
          "type": "string"
        }
      ],
      "name": "UserAdded",
      "type": "event"
    },
    {
      "inputs": [
        {
          "internalType": "string",
          "name": "_title",
          "type": "string"
        },
        {
          "internalType": "string",
          "name": "_description",
          "type": "string"
        },
        {
          "internalType": "string",
          "name": "_category",
          "type": "string"
        },
        {
          "internalType": "string",
          "name": "_tags",
          "type": "string"
        },
        {
          "internalType": "uint256",
          "name": "_goalAmount",
          "type": "uint256"
        },
        {
          "internalType": "uint256",
          "name": "_duration",
          "type": "uint256"
        },
        {
          "internalType": "string",
          "name": "_imageURI",
          "type": "string"
        }
      ],
      "name": "addCampaign",
      "outputs": [],
      "stateMutability": "nonpayable",
      "type": "function"
    },
    {
      "inputs": [
        {
          "internalType": "address",
          "name": "_address",
          "type": "address"
        },
        {
          "internalType": "string",
          "name": "_username",
          "type": "string"
        },
        {
          "internalType": "string",
          "name": "_twitter",
          "type": "string"
        },
        {
          "internalType": "string",
          "name": "_email",
          "type": "string"
        },
        {
          "internalType": "string",
          "name": "_homeAddress",
          "type": "string"
        },
        {
          "internalType": "string",
          "name": "_pfp",
          "type": "string"
        }
      ],
      "name": "addUser",
      "outputs": [],
      "stateMutability": "nonpayable",
      "type": "function"
    },
    {
      "inputs": [],
      "name": "campaignCounter",
      "outputs": [
        {
          "internalType": "uint256",
          "name": "",
          "type": "uint256"
        }
      ],
      "stateMutability": "view",
      "type": "function"
    },
    {
      "inputs": [
        {
          "internalType": "address",
          "name": "_campaignAddress",
          "type": "address"
        }
      ],
      "name": "donateToCampaign",
      "outputs": [],
      "stateMutability": "payable",
      "type": "function"
    },
    {
      "inputs": [
        {
          "internalType": "address",
          "name": "_campaignAddress",
          "type": "address"
        },
        {
          "internalType": "address",
          "name": "_upkeepCreator",
          "type": "address"
        },
        {
          "internalType": "address",
          "name": "_linkToken",
          "type": "address"
        }
      ],
      "name": "publishCampaign",
      "outputs": [],
      "stateMutability": "nonpayable",
      "type": "function"
    },
    {
      "inputs": [
        {
          "internalType": "address",
          "name": "_campaignAddress",
          "type": "address"
        }
      ],
      "name": "refundFromCampaign",
      "outputs": [],
      "stateMutability": "nonpayable",
      "type": "function"
    },
    {
      "inputs": [
        {
          "internalType": "address",
          "name": "_campaignAddress",
          "type": "address"
        }
      ],
      "name": "removeCampaign",
      "outputs": [],
      "stateMutability": "nonpayable",
      "type": "function"
    }
  ],
  "bytecode": "0x608060405234801561001057600080fd5b50615d81806100206000396000f3fe6080604052600436106200007a5760003560e01c8063bbfade3e1162000055578063bbfade3e14620000fb578063e4663a5b1462000129578063fab62a1d1462000157578063fca604d71462000185576200007a565b80631a702aa0146200007f5780637c6abc8214620000ad578063ac3d15fb14620000cd575b600080fd5b3480156200008c57600080fd5b50620000ab6004803603810190620000a5919062000e5d565b620001b5565b005b620000cb6004803603810190620000c5919062000f94565b62000215565b005b348015620000da57600080fd5b50620000f96004803603810190620000f3919062000f94565b620003bf565b005b3480156200010857600080fd5b5062000127600480360381019062000121919062001001565b6200066a565b005b3480156200013657600080fd5b506200015560048036038101906200014f919062000f94565b620007ac565b005b3480156200016457600080fd5b506200018360048036038101906200017d91906200114f565b62000ab6565b005b3480156200019257600080fd5b506200019d62000c56565b604051620001ac9190620011bc565b60405180910390f35b8573ffffffffffffffffffffffffffffffffffffffff167f8a71481c426e212d085148853642cbd73769f57ca8e2a96eca998197465ab4168686868686604051620002059594939291906200126c565b60405180910390a2505050505050565b60008173ffffffffffffffffffffffffffffffffffffffff163433604051602401620002429190620012fd565b6040516020818303038152906040527e362a95000000000000000000000000000000000000000000000000000000007bffffffffffffffffffffffffffffffffffffffffffffffffffffffff19166020820180517bffffffffffffffffffffffffffffffffffffffffffffffffffffffff8381831617835250505050604051620002cd919062001367565b60006040518083038185875af1925050503d80600081146200030c576040519150601f19603f3d011682016040523d82523d6000602084013e62000311565b606091505b50509050801562000389578173ffffffffffffffffffffffffffffffffffffffff163373ffffffffffffffffffffffffffffffffffffffff167f31dfdd0cdbba4daad7dbdc3bee4f31a7843784462febd6b9a72a11b282c41ef9346040516200037b9190620011bc565b60405180910390a3620003bb565b6040517f6bfd065c00000000000000000000000000000000000000000000000000000000815260040160405180910390fd5b5050565b6000600160008373ffffffffffffffffffffffffffffffffffffffff1673ffffffffffffffffffffffffffffffffffffffff16815260200190815260200160002060009054906101000a900473ffffffffffffffffffffffffffffffffffffffff1673ffffffffffffffffffffffffffffffffffffffff166309917c50336040518263ffffffff1660e01b81526004016200045b9190620012fd565b60206040518083038186803b1580156200047457600080fd5b505afa15801562000489573d6000803e3d6000fd5b505050506040513d601f19601f82011682018060405250810190620004af919062001397565b905060008111620004bf57600080fd5b60008273ffffffffffffffffffffffffffffffffffffffff1633604051602401620004eb9190620012fd565b6040516020818303038152906040527ffa89401a000000000000000000000000000000000000000000000000000000007bffffffffffffffffffffffffffffffffffffffffffffffffffffffff19166020820180517bffffffffffffffffffffffffffffffffffffffffffffffffffffffff838183161783525050505060405162000577919062001367565b6000604051808303816000865af19150503d8060008114620005b6576040519150601f19603f3d011682016040523d82523d6000602084013e620005bb565b606091505b50509050801562000633578273ffffffffffffffffffffffffffffffffffffffff163373ffffffffffffffffffffffffffffffffffffffff167f8cb455cec59b17d4c723945fe8127937707037e0bb6da7ed63742fcb9f6babe384604051620006259190620011bc565b60405180910390a362000665565b6040517fda3e747c00000000000000000000000000000000000000000000000000000000815260040160405180910390fd5b505050565b6000303389898989898989604051620006839062000c74565b620006979998979695949392919062001434565b604051809103906000f080158015620006b4573d6000803e3d6000fd5b50905080600160008373ffffffffffffffffffffffffffffffffffffffff1673ffffffffffffffffffffffffffffffffffffffff16815260200190815260200160002060006101000a81548173ffffffffffffffffffffffffffffffffffffffff021916908373ffffffffffffffffffffffffffffffffffffffff1602179055503373ffffffffffffffffffffffffffffffffffffffff168173ffffffffffffffffffffffffffffffffffffffff167f54aab6ebc201e42488e3fdefdd10c9b99816e9dc15e8a77f1fba0bd435a414578a8a8a8a6040516200079a9493929190620014f6565b60405180910390a35050505050505050565b3373ffffffffffffffffffffffffffffffffffffffff16600160008373ffffffffffffffffffffffffffffffffffffffff1673ffffffffffffffffffffffffffffffffffffffff16815260200190815260200160002060009054906101000a900473ffffffffffffffffffffffffffffffffffffffff1673ffffffffffffffffffffffffffffffffffffffff1663b145603e6040518163ffffffff1660e01b815260040160206040518083038186803b1580156200086957600080fd5b505afa1580156200087e573d6000803e3d6000fd5b505050506040513d601f19601f82011682018060405250810190620008a49190620015a4565b73ffffffffffffffffffffffffffffffffffffffff1614620008f2576040517f06256c5e00000000000000000000000000000000000000000000000000000000815260040160405180910390fd5b6000600160008373ffffffffffffffffffffffffffffffffffffffff1673ffffffffffffffffffffffffffffffffffffffff16815260200190815260200160002060009054906101000a900473ffffffffffffffffffffffffffffffffffffffff1673ffffffffffffffffffffffffffffffffffffffff1663ce845d1d6040518163ffffffff1660e01b815260040160206040518083038186803b1580156200099a57600080fd5b505afa158015620009af573d6000803e3d6000fd5b505050506040513d601f19601f82011682018060405250810190620009d5919062001397565b111562000a0e576040517fb2032d6600000000000000000000000000000000000000000000000000000000815260040160405180910390fd5b600160008273ffffffffffffffffffffffffffffffffffffffff1673ffffffffffffffffffffffffffffffffffffffff16815260200190815260200160002060006101000a81549073ffffffffffffffffffffffffffffffffffffffff02191690558073ffffffffffffffffffffffffffffffffffffffff167fd41d62ed7a46b1f2f4c0a4c0fa40c95bbe14a7d55034ff9817b743d6cb79353660405160405180910390a250565b60008373ffffffffffffffffffffffffffffffffffffffff1683838660405160240162000ae693929190620015d6565b6040516020818303038152906040527f5f700266000000000000000000000000000000000000000000000000000000007bffffffffffffffffffffffffffffffffffffffffffffffffffffffff19166020820180517bffffffffffffffffffffffffffffffffffffffffffffffffffffffff838183161783525050505060405162000b72919062001367565b600060405180830381855af49150503d806000811462000baf576040519150601f19603f3d011682016040523d82523d6000602084013e62000bb4565b606091505b50509050801562000c1e5762000bd7600160005462000c5c90919063ffffffff16565b6000819055507f4ee76a1c89ccbef26f098ac48c95b7da87fe34749fea8758a71a3dc4ccc28bcd843360405162000c1092919062001613565b60405180910390a162000c50565b6040517f7f42f20d00000000000000000000000000000000000000000000000000000000815260040160405180910390fd5b50505050565b60005481565b6000818362000c6c91906200166f565b905092915050565b61467f80620016cd83390190565b6000604051905090565b600080fd5b600080fd5b600073ffffffffffffffffffffffffffffffffffffffff82169050919050565b600062000cc38262000c96565b9050919050565b62000cd58162000cb6565b811462000ce157600080fd5b50565b60008135905062000cf58162000cca565b92915050565b600080fd5b600080fd5b6000601f19601f8301169050919050565b7f4e487b7100000000000000000000000000000000000000000000000000000000600052604160045260246000fd5b62000d508262000d05565b810181811067ffffffffffffffff8211171562000d725762000d7162000d16565b5b80604052505050565b600062000d8762000c82565b905062000d95828262000d45565b919050565b600067ffffffffffffffff82111562000db85762000db762000d16565b5b62000dc38262000d05565b9050602081019050919050565b82818337600083830152505050565b600062000df662000df08462000d9a565b62000d7b565b90508281526020810184848401111562000e155762000e1462000d00565b5b62000e2284828562000dd0565b509392505050565b600082601f83011262000e425762000e4162000cfb565b5b813562000e5484826020860162000ddf565b91505092915050565b60008060008060008060c0878903121562000e7d5762000e7c62000c8c565b5b600062000e8d89828a0162000ce4565b965050602087013567ffffffffffffffff81111562000eb15762000eb062000c91565b5b62000ebf89828a0162000e2a565b955050604087013567ffffffffffffffff81111562000ee35762000ee262000c91565b5b62000ef189828a0162000e2a565b945050606087013567ffffffffffffffff81111562000f155762000f1462000c91565b5b62000f2389828a0162000e2a565b935050608087013567ffffffffffffffff81111562000f475762000f4662000c91565b5b62000f5589828a0162000e2a565b92505060a087013567ffffffffffffffff81111562000f795762000f7862000c91565b5b62000f8789828a0162000e2a565b9150509295509295509295565b60006020828403121562000fad5762000fac62000c8c565b5b600062000fbd8482850162000ce4565b91505092915050565b6000819050919050565b62000fdb8162000fc6565b811462000fe757600080fd5b50565b60008135905062000ffb8162000fd0565b92915050565b600080600080600080600060e0888a03121562001023576200102262000c8c565b5b600088013567ffffffffffffffff81111562001044576200104362000c91565b5b620010528a828b0162000e2a565b975050602088013567ffffffffffffffff81111562001076576200107562000c91565b5b620010848a828b0162000e2a565b965050604088013567ffffffffffffffff811115620010a857620010a762000c91565b5b620010b68a828b0162000e2a565b955050606088013567ffffffffffffffff811115620010da57620010d962000c91565b5b620010e88a828b0162000e2a565b9450506080620010fb8a828b0162000fea565b93505060a06200110e8a828b0162000fea565b92505060c088013567ffffffffffffffff81111562001132576200113162000c91565b5b620011408a828b0162000e2a565b91505092959891949750929550565b6000806000606084860312156200116b576200116a62000c8c565b5b60006200117b8682870162000ce4565b93505060206200118e8682870162000ce4565b9250506040620011a18682870162000ce4565b9150509250925092565b620011b68162000fc6565b82525050565b6000602082019050620011d36000830184620011ab565b92915050565b600081519050919050565b600082825260208201905092915050565b60005b8381101562001215578082015181840152602081019050620011f8565b8381111562001225576000848401525b50505050565b60006200123882620011d9565b620012448185620011e4565b935062001256818560208601620011f5565b620012618162000d05565b840191505092915050565b600060a08201905081810360008301526200128881886200122b565b905081810360208301526200129e81876200122b565b90508181036040830152620012b481866200122b565b90508181036060830152620012ca81856200122b565b90508181036080830152620012e081846200122b565b90509695505050505050565b620012f78162000cb6565b82525050565b6000602082019050620013146000830184620012ec565b92915050565b600081519050919050565b600081905092915050565b60006200133d826200131a565b62001349818562001325565b93506200135b818560208601620011f5565b80840191505092915050565b600062001375828462001330565b915081905092915050565b600081519050620013918162000fd0565b92915050565b600060208284031215620013b057620013af62000c8c565b5b6000620013c08482850162001380565b91505092915050565b6000819050919050565b6000620013f4620013ee620013e88462000c96565b620013c9565b62000c96565b9050919050565b60006200140882620013d3565b9050919050565b60006200141c82620013fb565b9050919050565b6200142e816200140f565b82525050565b6000610120820190506200144c600083018c620012ec565b6200145b602083018b62001423565b81810360408301526200146f818a6200122b565b905081810360608301526200148581896200122b565b905081810360808301526200149b81886200122b565b905081810360a0830152620014b181876200122b565b9050620014c260c0830186620011ab565b620014d160e0830185620011ab565b818103610100830152620014e681846200122b565b90509a9950505050505050505050565b600060808201905081810360008301526200151281876200122b565b905081810360208301526200152881866200122b565b905081810360408301526200153e81856200122b565b905081810360608301526200155481846200122b565b905095945050505050565b60006200156c8262000c96565b9050919050565b6200157e816200155f565b81146200158a57600080fd5b50565b6000815190506200159e8162001573565b92915050565b600060208284031215620015bd57620015bc62000c8c565b5b6000620015cd848285016200158d565b91505092915050565b6000606082019050620015ed6000830186620012ec565b620015fc6020830185620012ec565b6200160b6040830184620012ec565b949350505050565b60006040820190506200162a6000830185620012ec565b620016396020830184620012ec565b9392505050565b7f4e487b7100000000000000000000000000000000000000000000000000000000600052601160045260246000fd5b60006200167c8262000fc6565b9150620016898362000fc6565b9250827fffffffffffffffffffffffffffffffffffffffffffffffffffffffffffffffff03821115620016c157620016c062001640565b5b82820190509291505056fe60e06040526000600b60006101000a81548160ff021916908360028111156200002d576200002c62000287565b5b02179055503480156200003f57600080fd5b506040516200467f3803806200467f8339818101604052810190620000659190620004f3565b60016000819055508873ffffffffffffffffffffffffffffffffffffffff1660808173ffffffffffffffffffffffffffffffffffffffff1660601b815250508773ffffffffffffffffffffffffffffffffffffffff1660a08173ffffffffffffffffffffffffffffffffffffffff1660601b815250508660019080519060200190620000f3929190620001d7565b5085600290805190602001906200010c929190620001d7565b50846003908051906020019062000125929190620001d7565b5083600690805190602001906200013e929190620001d7565b50826007819055504260c08181525050624f1a00821162000160578162000165565b624f1a005b6008819055506200018960085460c051620001bf60201b6200281e1790919060201c565b600a819055508060049080519060200190620001a7929190620001d7565b5060006009819055505050505050505050506200075e565b60008183620001cf91906200069c565b905092915050565b828054620001e59062000728565b90600052602060002090601f01602090048101928262000209576000855562000255565b82601f106200022457805160ff191683800117855562000255565b8280016001018555821562000255579182015b828111156200025457825182559160200191906001019062000237565b5b50905062000264919062000268565b5090565b5b808211156200028357600081600090555060010162000269565b5090565b7f4e487b7100000000000000000000000000000000000000000000000000000000600052602160045260246000fd5b6000604051905090565b600080fd5b600080fd5b600073ffffffffffffffffffffffffffffffffffffffff82169050919050565b6000620002f782620002ca565b9050919050565b6200030981620002ea565b81146200031557600080fd5b50565b6000815190506200032981620002fe565b92915050565b600080fd5b600080fd5b6000601f19601f8301169050919050565b7f4e487b7100000000000000000000000000000000000000000000000000000000600052604160045260246000fd5b620003848262000339565b810181811067ffffffffffffffff82111715620003a657620003a56200034a565b5b80604052505050565b6000620003bb620002b6565b9050620003c9828262000379565b919050565b600067ffffffffffffffff821115620003ec57620003eb6200034a565b5b620003f78262000339565b9050602081019050919050565b60005b838110156200042457808201518184015260208101905062000407565b8381111562000434576000848401525b50505050565b6000620004516200044b84620003ce565b620003af565b90508281526020810184848401111562000470576200046f62000334565b5b6200047d84828562000404565b509392505050565b600082601f8301126200049d576200049c6200032f565b5b8151620004af8482602086016200043a565b91505092915050565b6000819050919050565b620004cd81620004b8565b8114620004d957600080fd5b50565b600081519050620004ed81620004c2565b92915050565b60008060008060008060008060006101208a8c031215620005195762000518620002c0565b5b6000620005298c828d0162000318565b99505060206200053c8c828d0162000318565b98505060408a015167ffffffffffffffff81111562000560576200055f620002c5565b5b6200056e8c828d0162000485565b97505060608a015167ffffffffffffffff811115620005925762000591620002c5565b5b620005a08c828d0162000485565b96505060808a015167ffffffffffffffff811115620005c457620005c3620002c5565b5b620005d28c828d0162000485565b95505060a08a015167ffffffffffffffff811115620005f657620005f5620002c5565b5b620006048c828d0162000485565b94505060c0620006178c828d01620004dc565b93505060e06200062a8c828d01620004dc565b9250506101008a015167ffffffffffffffff8111156200064f576200064e620002c5565b5b6200065d8c828d0162000485565b9150509295985092959850929598565b7f4e487b7100000000000000000000000000000000000000000000000000000000600052601160045260246000fd5b6000620006a982620004b8565b9150620006b683620004b8565b9250827fffffffffffffffffffffffffffffffffffffffffffffffffffffffffffffffff03821115620006ee57620006ed6200066d565b5b828201905092915050565b7f4e487b7100000000000000000000000000000000000000000000000000000000600052602260045260246000fd5b600060028204905060018216806200074157607f821691505b60208210811415620007585762000757620006f9565b5b50919050565b60805160601c60a05160601c60c051613e90620007ef60003960008181611beb015261248101526000818161083201528181610bba015281816116200152818161174d015281816118cb015281816119ab01528181611aae01528181611b5f01528181611c7d01528181611e810152818161202e01526123b301526000818161076d01526125070152613e906000f3fe6080604052600436106101cc5760003560e01c806360fa9a72116100f7578063b145603e11610095578063ce845d1d11610064578063ce845d1d1461065d578063f301af4214610688578063fa6ded39146106cb578063fa89401a146106f4576101cc565b8063b145603e146105b1578063bf66e2c8146105dc578063c5cd507814610607578063ce2a057214610632576101cc565b80636e04ff0d116100d15780636e04ff0d146105085780636e60eef71461054657806371aac7f91461056f57806399a8502d14610586576101cc565b806360fa9a72146104895780636235887a146104b457806363bd1d4a146104f1576101cc565b80631c4b774b1161016f5780634585e33b1161013e5780634585e33b146103e35780634d695bdb1461040c5780634ef89719146104355780635f70026614610460576101cc565b80631c4b774b146103255780632636b9451461036257806329dcb0cf1461038d5780634278ac8b146103b8576101cc565b80630fb5a6b4116101ab5780630fb5a6b41461025557806315a46ee6146102805780631774d960146102ab5780631910bdc2146102e8576101cc565b8062362a95146101d157806309917c50146101ed5780630c611f241461022a575b600080fd5b6101eb60048036038101906101e69190612b1b565b61071d565b005b3480156101f957600080fd5b50610214600480360381019061020f9190612b1b565b610b8c565b6040516102219190612b61565b60405180910390f35b34801561023657600080fd5b5061023f610ba4565b60405161024c9190612dd1565b60405180910390f35b34801561026157600080fd5b5061026a610f9e565b6040516102779190612b61565b60405180910390f35b34801561028c57600080fd5b50610295610fa4565b6040516102a29190612e3d565b60405180910390f35b3480156102b757600080fd5b506102d260048036038101906102cd9190612e8b565b611032565b6040516102df9190612b61565b60405180910390f35b3480156102f457600080fd5b5061030f600480360381019061030a9190612b1b565b611063565b60405161031c9190612f7a565b60405180910390f35b34801561033157600080fd5b5061034c60048036038101906103479190612f9c565b6110fa565b6040516103599190613187565b60405180910390f35b34801561036e57600080fd5b506103776114c9565b6040516103849190612b61565b60405180910390f35b34801561039957600080fd5b506103a26114cf565b6040516103af9190612b61565b60405180910390f35b3480156103c457600080fd5b506103cd6114d5565b6040516103da9190612e3d565b60405180910390f35b3480156103ef57600080fd5b5061040a6004803603810190610405919061320e565b611563565b005b34801561041857600080fd5b50610433600480360381019061042e919061338b565b61161e565b005b34801561044157600080fd5b5061044a6116bd565b6040516104579190612e3d565b60405180910390f35b34801561046c57600080fd5b50610487600480360381019061048291906133d4565b61174b565b005b34801561049557600080fd5b5061049e611972565b6040516104ab9190613436565b60405180910390f35b3480156104c057600080fd5b506104db60048036038101906104d69190612f9c565b611985565b6040516104e89190612b61565b60405180910390f35b3480156104fd57600080fd5b506105066119a9565b005b34801561051457600080fd5b5061052f600480360381019061052a91906134f2565b611ba3565b60405161053d92919061359f565b60405180910390f35b34801561055257600080fd5b5061056d600480360381019061056891906136dc565b611c7b565b005b34801561057b57600080fd5b50610584611e7f565b005b34801561059257600080fd5b5061059b611f9e565b6040516105a89190612e3d565b60405180910390f35b3480156105bd57600080fd5b506105c661202c565b6040516105d39190613853565b60405180910390f35b3480156105e857600080fd5b506105f1612050565b6040516105fe9190612f7a565b60405180910390f35b34801561061357600080fd5b5061061c6120a8565b6040516106299190612e3d565b60405180910390f35b34801561063e57600080fd5b50610647612136565b6040516106549190612e3d565b60405180910390f35b34801561066957600080fd5b506106726121c4565b60405161067f9190612b61565b60405180910390f35b34801561069457600080fd5b506106af60048036038101906106aa9190612f9c565b6121ca565b6040516106c2979695949392919061386e565b60405180910390f35b3480156106d757600080fd5b506106f260048036038101906106ed9190612f9c565b6123b1565b005b34801561070057600080fd5b5061071b60048036038101906107169190612b1b565b6124b7565b005b60026000541415610763576040517f08c379a000000000000000000000000000000000000000000000000000000000815260040161075a9061393e565b60405180910390fd5b60026000819055507f000000000000000000000000000000000000000000000000000000000000000073ffffffffffffffffffffffffffffffffffffffff163373ffffffffffffffffffffffffffffffffffffffff16146107c357600080fd5b600060028111156107d7576107d6612c33565b5b600b60009054906101000a900460ff1660028111156107f9576107f8612c33565b5b14610830576040517faeb8874900000000000000000000000000000000000000000000000000000000815260040160405180910390fd5b7f000000000000000000000000000000000000000000000000000000000000000073ffffffffffffffffffffffffffffffffffffffff168173ffffffffffffffffffffffffffffffffffffffff1614156108b6576040517f1e4a120d00000000000000000000000000000000000000000000000000000000815260040160405180910390fd5b6108cb3460095461281e90919063ffffffff16565b6009819055506000600d6000348152602001908152602001600020600001541180156109185750600d600034815260200190815260200160002060070160009054906101000a900460ff16155b156109e8576000600d60003481526020019081526020016000206006015411156109e7576109666001600d60003481526020019081526020016000206006015461283490919063ffffffff16565b600d600034815260200190815260200160002060060181905550600e60008273ffffffffffffffffffffffffffffffffffffffff1673ffffffffffffffffffffffffffffffffffffffff1681526020019081526020016000203490806001815401808255809150506001900390600052602060002001600090919091909150555b5b6000600d600034815260200190815260200160002060000154118015610a2e5750600d600034815260200190815260200160002060070160009054906101000a900460ff165b15610a9a57600e60008273ffffffffffffffffffffffffffffffffffffffff1673ffffffffffffffffffffffffffffffffffffffff1681526020019081526020016000203490806001815401808255809150506001900390600052602060002001600090919091909150555b610aec34600f60008473ffffffffffffffffffffffffffffffffffffffff1673ffffffffffffffffffffffffffffffffffffffff1681526020019081526020016000205461281e90919063ffffffff16565b600f60008373ffffffffffffffffffffffffffffffffffffffff1673ffffffffffffffffffffffffffffffffffffffff168152602001908152602001600020819055508073ffffffffffffffffffffffffffffffffffffffff167fe76ad748537a48e778fef43dda4a6bd1b50cd62385f9f21a9ca267492355120834600954604051610b7992919061395e565b60405180910390a2600160008190555050565b600f6020528060005260406000206000915090505481565b610bac61284a565b6040518061018001604052807f000000000000000000000000000000000000000000000000000000000000000073ffffffffffffffffffffffffffffffffffffffff16815260200160018054610c01906139b6565b80601f0160208091040260200160405190810160405280929190818152602001828054610c2d906139b6565b8015610c7a5780601f10610c4f57610100808354040283529160200191610c7a565b820191906000526020600020905b815481529060010190602001808311610c5d57829003601f168201915b5050505050815260200160028054610c91906139b6565b80601f0160208091040260200160405190810160405280929190818152602001828054610cbd906139b6565b8015610d0a5780601f10610cdf57610100808354040283529160200191610d0a565b820191906000526020600020905b815481529060010190602001808311610ced57829003601f168201915b5050505050815260200160038054610d21906139b6565b80601f0160208091040260200160405190810160405280929190818152602001828054610d4d906139b6565b8015610d9a5780601f10610d6f57610100808354040283529160200191610d9a565b820191906000526020600020905b815481529060010190602001808311610d7d57829003601f168201915b5050505050815260200160068054610db1906139b6565b80601f0160208091040260200160405190810160405280929190818152602001828054610ddd906139b6565b8015610e2a5780601f10610dff57610100808354040283529160200191610e2a565b820191906000526020600020905b815481529060010190602001808311610e0d57829003601f168201915b50505050508152602001600754815260200160085481526020016009548152602001600b60009054906101000a900460ff166002811115610e6e57610e6d612c33565b5b815260200160048054610e80906139b6565b80601f0160208091040260200160405190810160405280929190818152602001828054610eac906139b6565b8015610ef95780601f10610ece57610100808354040283529160200191610ef9565b820191906000526020600020905b815481529060010190602001808311610edc57829003601f168201915b5050505050815260200160058054610f10906139b6565b80601f0160208091040260200160405190810160405280929190818152602001828054610f3c906139b6565b8015610f895780601f10610f5e57610100808354040283529160200191610f89565b820191906000526020600020905b815481529060010190602001808311610f6c57829003601f168201915b50505050508152602001600a54815250905090565b60085481565b60058054610fb1906139b6565b80601f0160208091040260200160405190810160405280929190818152602001828054610fdd906139b6565b801561102a5780601f10610fff5761010080835404028352916020019161102a565b820191906000526020600020905b81548152906001019060200180831161100d57829003601f168201915b505050505081565b600e602052816000526040600020818154811061104e57600080fd5b90600052602060002001600091509150505481565b6060600e60008373ffffffffffffffffffffffffffffffffffffffff1673ffffffffffffffffffffffffffffffffffffffff1681526020019081526020016000208054806020026020016040519081016040528092919081815260200182805480156110ee57602002820191906000526020600020905b8154815260200190600101908083116110da575b50505050509050919050565b6111026128d3565b600d6000838152602001908152602001600020604051806101200160405290816000820154815260200160018201805461113b906139b6565b80601f0160208091040260200160405190810160405280929190818152602001828054611167906139b6565b80156111b45780601f10611189576101008083540402835291602001916111b4565b820191906000526020600020905b81548152906001019060200180831161119757829003601f168201915b505050505081526020016002820180546111cd906139b6565b80601f01602080910402602001604051908101604052809291908181526020018280546111f9906139b6565b80156112465780601f1061121b57610100808354040283529160200191611246565b820191906000526020600020905b81548152906001019060200180831161122957829003601f168201915b5050505050815260200160038201805461125f906139b6565b80601f016020809104026020016040519081016040528092919081815260200182805461128b906139b6565b80156112d85780601f106112ad576101008083540402835291602001916112d8565b820191906000526020600020905b8154815290600101906020018083116112bb57829003601f168201915b5050505050815260200160048201805480602002602001604051908101604052809291908181526020016000905b828210156113b2578382906000526020600020018054611325906139b6565b80601f0160208091040260200160405190810160405280929190818152602001828054611351906139b6565b801561139e5780601f106113735761010080835404028352916020019161139e565b820191906000526020600020905b81548152906001019060200180831161138157829003601f168201915b505050505081526020019060010190611306565b50505050815260200160058201548152602001600682015481526020016007820160009054906101000a900460ff1615151515815260200160088201805480602002602001604051908101604052809291908181526020016000905b828210156114ba57838290600052602060002001805461142d906139b6565b80601f0160208091040260200160405190810160405280929190818152602001828054611459906139b6565b80156114a65780601f1061147b576101008083540402835291602001916114a6565b820191906000526020600020905b81548152906001019060200180831161148957829003601f168201915b50505050508152602001906001019061140e565b50505050815250509050919050565b60075481565b600a5481565b600380546114e2906139b6565b80601f016020809104026020016040519081016040528092919081815260200182805461150e906139b6565b801561155b5780601f106115305761010080835404028352916020019161155b565b820191906000526020600020905b81548152906001019060200180831161153e57829003601f168201915b505050505081565b600061157d60405180602001604052806000815250611ba3565b509050806115b7576040517fbc7a0a6300000000000000000000000000000000000000000000000000000000815260040160405180910390fd5b6001600b60006101000a81548160ff021916908360028111156115dd576115dc612c33565b5b02179055507f5cf8cd2bd40f758a95257bed666285eb82801f1bf9223b8ec1481e510ba2e82d3060405161161191906139f7565b60405180910390a1505050565b7f000000000000000000000000000000000000000000000000000000000000000073ffffffffffffffffffffffffffffffffffffffff163373ffffffffffffffffffffffffffffffffffffffff16146116a3576040517fb167e90c00000000000000000000000000000000000000000000000000000000815260040160405180910390fd5b80600590805190602001906116b9929190612921565b5050565b600280546116ca906139b6565b80601f01602080910402602001604051908101604052809291908181526020018280546116f6906139b6565b80156117435780601f1061171857610100808354040283529160200191611743565b820191906000526020600020905b81548152906001019060200180831161172657829003601f168201915b505050505081565b7f000000000000000000000000000000000000000000000000000000000000000073ffffffffffffffffffffffffffffffffffffffff163373ffffffffffffffffffffffffffffffffffffffff16146117d0576040517fb167e90c00000000000000000000000000000000000000000000000000000000815260040160405180910390fd5b6000839050600083905060008173ffffffffffffffffffffffffffffffffffffffff166370a08231876040518263ffffffff1660e01b815260040161181591906139f7565b60206040518083038186803b15801561182d57600080fd5b505afa158015611841573d6000803e3d6000fd5b505050506040513d601f19601f820116820180604052508101906118659190613a27565b14156118a6576040517f08c379a000000000000000000000000000000000000000000000000000000000815260040161189d90613aa0565b60405180910390fd5b8173ffffffffffffffffffffffffffffffffffffffff16634c7e9be36001856207a1207f0000000000000000000000000000000000000000000000000000000000000000671bc16d674ec800006040518663ffffffff1660e01b8152600401611913959493929190613c9e565b602060405180830381600087803b15801561192d57600080fd5b505af1158015611941573d6000803e3d6000fd5b505050506040513d601f19601f820116820180604052508101906119659190613a27565b600c819055505050505050565b600b60009054906101000a900460ff1681565b6010818154811061199557600080fd5b906000526020600020016000915090505481565b7f000000000000000000000000000000000000000000000000000000000000000073ffffffffffffffffffffffffffffffffffffffff163373ffffffffffffffffffffffffffffffffffffffff1614611a2e576040517fb167e90c00000000000000000000000000000000000000000000000000000000815260040160405180910390fd5b60016002811115611a4257611a41612c33565b5b600b60009054906101000a900460ff166002811115611a6457611a63612c33565b5b14611a9b576040517faeb8874900000000000000000000000000000000000000000000000000000000815260040160405180910390fd5b60006009549050600060098190555060007f000000000000000000000000000000000000000000000000000000000000000073ffffffffffffffffffffffffffffffffffffffff1682604051611af090613d63565b60006040518083038185875af1925050503d8060008114611b2d576040519150601f19603f3d011682016040523d82523d6000602084013e611b32565b606091505b505090508015611b9a577fba5e837743d81ad0e6deb16089dbb65b549fdda8ad802fd8d4822884d70dc8b27f000000000000000000000000000000000000000000000000000000000000000030604051611b8d929190613d78565b60405180910390a1611b9f565b600080fd5b5050565b600060606000806002811115611bbc57611bbb612c33565b5b600b60009054906101000a900460ff166002811115611bde57611bdd612c33565b5b1490506000600854611c197f00000000000000000000000000000000000000000000000000000000000000004261283490919063ffffffff16565b11905060008047119050818015611c2d5750825b8015611c365750805b9450846040518060400160405280600381526020017f307830000000000000000000000000000000000000000000000000000000000081525094509450505050915091565b7f000000000000000000000000000000000000000000000000000000000000000073ffffffffffffffffffffffffffffffffffffffff163373ffffffffffffffffffffffffffffffffffffffff1614611d00576040517fb167e90c00000000000000000000000000000000000000000000000000000000815260040160405180910390fd5b60108990806001815401808255809150506001900390600052602060002001600090919091909150556000600d60008b81526020019081526020016000206000015414611d4c57600080fd5b6040518061012001604052808a8152602001898152602001888152602001878152602001868152602001858152602001848152602001831515815260200182815250600d60008b8152602001908152602001600020600082015181600001556020820151816001019080519060200190611dc7929190612921565b506040820151816002019080519060200190611de4929190612921565b506060820151816003019080519060200190611e01929190612921565b506080820151816004019080519060200190611e1e9291906129a7565b5060a0820151816005015560c0820151816006015560e08201518160070160006101000a81548160ff021916908315150217905550610100820151816008019080519060200190611e709291906129a7565b50905050505050505050505050565b7f000000000000000000000000000000000000000000000000000000000000000073ffffffffffffffffffffffffffffffffffffffff163373ffffffffffffffffffffffffffffffffffffffff1614611f04576040517fb167e90c00000000000000000000000000000000000000000000000000000000815260040160405180910390fd5b60016002811115611f1857611f17612c33565b5b600b60009054906101000a900460ff166002811115611f3a57611f39612c33565b5b1415611f4557600080fd5b6002600b60006101000a81548160ff02191690836002811115611f6b57611f6a612c33565b5b02179055507fb83ebe09f40e9293bdea1d6567fae3175119d3d0ff13c4b4df15994837dd7f5160405160405180910390a1565b60018054611fab906139b6565b80601f0160208091040260200160405190810160405280929190818152602001828054611fd7906139b6565b80156120245780601f10611ff957610100808354040283529160200191612024565b820191906000526020600020905b81548152906001019060200180831161200757829003601f168201915b505050505081565b7f000000000000000000000000000000000000000000000000000000000000000081565b6060601080548060200260200160405190810160405280929190818152602001828054801561209e57602002820191906000526020600020905b81548152602001906001019080831161208a575b5050505050905090565b600680546120b5906139b6565b80601f01602080910402602001604051908101604052809291908181526020018280546120e1906139b6565b801561212e5780601f106121035761010080835404028352916020019161212e565b820191906000526020600020905b81548152906001019060200180831161211157829003601f168201915b505050505081565b60048054612143906139b6565b80601f016020809104026020016040519081016040528092919081815260200182805461216f906139b6565b80156121bc5780601f10612191576101008083540402835291602001916121bc565b820191906000526020600020905b81548152906001019060200180831161219f57829003601f168201915b505050505081565b60095481565b600d6020528060005260406000206000915090508060000154908060010180546121f3906139b6565b80601f016020809104026020016040519081016040528092919081815260200182805461221f906139b6565b801561226c5780601f106122415761010080835404028352916020019161226c565b820191906000526020600020905b81548152906001019060200180831161224f57829003601f168201915b505050505090806002018054612281906139b6565b80601f01602080910402602001604051908101604052809291908181526020018280546122ad906139b6565b80156122fa5780601f106122cf576101008083540402835291602001916122fa565b820191906000526020600020905b8154815290600101906020018083116122dd57829003601f168201915b50505050509080600301805461230f906139b6565b80601f016020809104026020016040519081016040528092919081815260200182805461233b906139b6565b80156123885780601f1061235d57610100808354040283529160200191612388565b820191906000526020600020905b81548152906001019060200180831161236b57829003601f168201915b5050505050908060050154908060060154908060070160009054906101000a900460ff16905087565b7f000000000000000000000000000000000000000000000000000000000000000073ffffffffffffffffffffffffffffffffffffffff163373ffffffffffffffffffffffffffffffffffffffff1614612436576040517fb167e90c00000000000000000000000000000000000000000000000000000000815260040160405180910390fd5b624f1a0061244f8260085461281e90919063ffffffff16565b1161246e576124698160085461281e90919063ffffffff16565b612473565b624f1a005b6008819055506124ae6008547f000000000000000000000000000000000000000000000000000000000000000061281e90919063ffffffff16565b600a8190555050565b600260005414156124fd576040517f08c379a00000000000000000000000000000000000000000000000000000000081526004016124f49061393e565b60405180910390fd5b60026000819055507f000000000000000000000000000000000000000000000000000000000000000073ffffffffffffffffffffffffffffffffffffffff163373ffffffffffffffffffffffffffffffffffffffff161461255d57600080fd5b6001600281111561257157612570612c33565b5b600b60009054906101000a900460ff16600281111561259357612592612c33565b5b14156125cb576040517faeb8874900000000000000000000000000000000000000000000000000000000815260040160405180910390fd5b6000600f60008373ffffffffffffffffffffffffffffffffffffffff1673ffffffffffffffffffffffffffffffffffffffff168152602001908152602001600020541415612645576040517f4cc8b68700000000000000000000000000000000000000000000000000000000815260040160405180910390fd5b6000600f60008373ffffffffffffffffffffffffffffffffffffffff1673ffffffffffffffffffffffffffffffffffffffff1681526020019081526020016000205490508060095410156126c5576040517f4d83c95000000000000000000000000000000000000000000000000000000000815260040160405180910390fd5b6126da8160095461283490919063ffffffff16565b60098190555060008273ffffffffffffffffffffffffffffffffffffffff168260405161270690613d63565b60006040518083038185875af1925050503d8060008114612743576040519150601f19603f3d011682016040523d82523d6000602084013e612748565b606091505b5050905080612783576040517f0520edd000000000000000000000000000000000000000000000000000000000815260040160405180910390fd5b600e60008473ffffffffffffffffffffffffffffffffffffffff1673ffffffffffffffffffffffffffffffffffffffff16815260200190815260200160002060006127ce9190612a07565b600f60008473ffffffffffffffffffffffffffffffffffffffff1673ffffffffffffffffffffffffffffffffffffffff168152602001908152602001600020600090555050600160008190555050565b6000818361282c9190613dd0565b905092915050565b600081836128429190613e26565b905092915050565b604051806101800160405280600073ffffffffffffffffffffffffffffffffffffffff16815260200160608152602001606081526020016060815260200160608152602001600081526020016000815260200160008152602001600060028111156128b8576128b7612c33565b5b81526020016060815260200160608152602001600081525090565b60405180610120016040528060008152602001606081526020016060815260200160608152602001606081526020016000815260200160008152602001600015158152602001606081525090565b82805461292d906139b6565b90600052602060002090601f01602090048101928261294f5760008555612996565b82601f1061296857805160ff1916838001178555612996565b82800160010185558215612996579182015b8281111561299557825182559160200191906001019061297a565b5b5090506129a39190612a28565b5090565b8280548282559060005260206000209081019282156129f6579160200282015b828111156129f55782518290805190602001906129e5929190612921565b50916020019190600101906129c7565b5b509050612a039190612a45565b5090565b5080546000825590600052602060002090810190612a259190612a28565b50565b5b80821115612a41576000816000905550600101612a29565b5090565b5b80821115612a655760008181612a5c9190612a69565b50600101612a46565b5090565b508054612a75906139b6565b6000825580601f10612a875750612aa6565b601f016020900490600052602060002090810190612aa59190612a28565b5b50565b6000604051905090565b600080fd5b600080fd5b600073ffffffffffffffffffffffffffffffffffffffff82169050919050565b6000612ae882612abd565b9050919050565b612af881612add565b8114612b0357600080fd5b50565b600081359050612b1581612aef565b92915050565b600060208284031215612b3157612b30612ab3565b5b6000612b3f84828501612b06565b91505092915050565b6000819050919050565b612b5b81612b48565b82525050565b6000602082019050612b766000830184612b52565b92915050565b612b8581612add565b82525050565b600081519050919050565b600082825260208201905092915050565b60005b83811015612bc5578082015181840152602081019050612baa565b83811115612bd4576000848401525b50505050565b6000601f19601f8301169050919050565b6000612bf682612b8b565b612c008185612b96565b9350612c10818560208601612ba7565b612c1981612bda565b840191505092915050565b612c2d81612b48565b82525050565b7f4e487b7100000000000000000000000000000000000000000000000000000000600052602160045260246000fd5b60038110612c7357612c72612c33565b5b50565b6000819050612c8482612c62565b919050565b6000612c9482612c76565b9050919050565b612ca481612c89565b82525050565b600061018083016000830151612cc36000860182612b7c565b5060208301518482036020860152612cdb8282612beb565b91505060408301518482036040860152612cf58282612beb565b91505060608301518482036060860152612d0f8282612beb565b91505060808301518482036080860152612d298282612beb565b91505060a0830151612d3e60a0860182612c24565b5060c0830151612d5160c0860182612c24565b5060e0830151612d6460e0860182612c24565b50610100830151612d79610100860182612c9b565b50610120830151848203610120860152612d938282612beb565b915050610140830151848203610140860152612daf8282612beb565b915050610160830151612dc6610160860182612c24565b508091505092915050565b60006020820190508181036000830152612deb8184612caa565b905092915050565b600082825260208201905092915050565b6000612e0f82612b8b565b612e198185612df3565b9350612e29818560208601612ba7565b612e3281612bda565b840191505092915050565b60006020820190508181036000830152612e578184612e04565b905092915050565b612e6881612b48565b8114612e7357600080fd5b50565b600081359050612e8581612e5f565b92915050565b60008060408385031215612ea257612ea1612ab3565b5b6000612eb085828601612b06565b9250506020612ec185828601612e76565b9150509250929050565b600081519050919050565b600082825260208201905092915050565b6000819050602082019050919050565b6000612f038383612c24565b60208301905092915050565b6000602082019050919050565b6000612f2782612ecb565b612f318185612ed6565b9350612f3c83612ee7565b8060005b83811015612f6d578151612f548882612ef7565b9750612f5f83612f0f565b925050600181019050612f40565b5085935050505092915050565b60006020820190508181036000830152612f948184612f1c565b905092915050565b600060208284031215612fb257612fb1612ab3565b5b6000612fc084828501612e76565b91505092915050565b600081519050919050565b600082825260208201905092915050565b6000819050602082019050919050565b60006130018383612beb565b905092915050565b6000602082019050919050565b600061302182612fc9565b61302b8185612fd4565b93508360208202850161303d85612fe5565b8060005b85811015613079578484038952815161305a8582612ff5565b945061306583613009565b925060208a01995050600181019050613041565b50829750879550505050505092915050565b60008115159050919050565b6130a08161308b565b82525050565b6000610120830160008301516130bf6000860182612c24565b50602083015184820360208601526130d78282612beb565b915050604083015184820360408601526130f18282612beb565b9150506060830151848203606086015261310b8282612beb565b915050608083015184820360808601526131258282613016565b91505060a083015161313a60a0860182612c24565b5060c083015161314d60c0860182612c24565b5060e083015161316060e0860182613097565b5061010083015184820361010086015261317a8282613016565b9150508091505092915050565b600060208201905081810360008301526131a181846130a6565b905092915050565b600080fd5b600080fd5b600080fd5b60008083601f8401126131ce576131cd6131a9565b5b8235905067ffffffffffffffff8111156131eb576131ea6131ae565b5b602083019150836001820283011115613207576132066131b3565b5b9250929050565b6000806020838503121561322557613224612ab3565b5b600083013567ffffffffffffffff81111561324357613242612ab8565b5b61324f858286016131b8565b92509250509250929050565b600080fd5b7f4e487b7100000000000000000000000000000000000000000000000000000000600052604160045260246000fd5b61329882612bda565b810181811067ffffffffffffffff821117156132b7576132b6613260565b5b80604052505050565b60006132ca612aa9565b90506132d6828261328f565b919050565b600067ffffffffffffffff8211156132f6576132f5613260565b5b6132ff82612bda565b9050602081019050919050565b82818337600083830152505050565b600061332e613329846132db565b6132c0565b90508281526020810184848401111561334a5761334961325b565b5b61335584828561330c565b509392505050565b600082601f830112613372576133716131a9565b5b813561338284826020860161331b565b91505092915050565b6000602082840312156133a1576133a0612ab3565b5b600082013567ffffffffffffffff8111156133bf576133be612ab8565b5b6133cb8482850161335d565b91505092915050565b6000806000606084860312156133ed576133ec612ab3565b5b60006133fb86828701612b06565b935050602061340c86828701612b06565b925050604061341d86828701612b06565b9150509250925092565b61343081612c89565b82525050565b600060208201905061344b6000830184613427565b92915050565b600067ffffffffffffffff82111561346c5761346b613260565b5b61347582612bda565b9050602081019050919050565b600061349561349084613451565b6132c0565b9050828152602081018484840111156134b1576134b061325b565b5b6134bc84828561330c565b509392505050565b600082601f8301126134d9576134d86131a9565b5b81356134e9848260208601613482565b91505092915050565b60006020828403121561350857613507612ab3565b5b600082013567ffffffffffffffff81111561352657613525612ab8565b5b613532848285016134c4565b91505092915050565b6135448161308b565b82525050565b600081519050919050565b600082825260208201905092915050565b60006135718261354a565b61357b8185613555565b935061358b818560208601612ba7565b61359481612bda565b840191505092915050565b60006040820190506135b4600083018561353b565b81810360208301526135c68184613566565b90509392505050565b600067ffffffffffffffff8211156135ea576135e9613260565b5b602082029050602081019050919050565b600061360e613609846135cf565b6132c0565b90508083825260208201905060208402830185811115613631576136306131b3565b5b835b8181101561367857803567ffffffffffffffff811115613656576136556131a9565b5b808601613663898261335d565b85526020850194505050602081019050613633565b5050509392505050565b600082601f830112613697576136966131a9565b5b81356136a78482602086016135fb565b91505092915050565b6136b98161308b565b81146136c457600080fd5b50565b6000813590506136d6816136b0565b92915050565b60008060008060008060008060006101208a8c0312156136ff576136fe612ab3565b5b600061370d8c828d01612e76565b99505060208a013567ffffffffffffffff81111561372e5761372d612ab8565b5b61373a8c828d0161335d565b98505060408a013567ffffffffffffffff81111561375b5761375a612ab8565b5b6137678c828d0161335d565b97505060608a013567ffffffffffffffff81111561378857613787612ab8565b5b6137948c828d0161335d565b96505060808a013567ffffffffffffffff8111156137b5576137b4612ab8565b5b6137c18c828d01613682565b95505060a06137d28c828d01612e76565b94505060c06137e38c828d01612e76565b93505060e06137f48c828d016136c7565b9250506101008a013567ffffffffffffffff81111561381657613815612ab8565b5b6138228c828d01613682565b9150509295985092959850929598565b600061383d82612abd565b9050919050565b61384d81613832565b82525050565b60006020820190506138686000830184613844565b92915050565b600060e082019050613883600083018a612b52565b81810360208301526138958189612e04565b905081810360408301526138a98188612e04565b905081810360608301526138bd8187612e04565b90506138cc6080830186612b52565b6138d960a0830185612b52565b6138e660c083018461353b565b98975050505050505050565b7f5265656e7472616e637947756172643a207265656e7472616e742063616c6c00600082015250565b6000613928601f83612df3565b9150613933826138f2565b602082019050919050565b600060208201905081810360008301526139578161391b565b9050919050565b60006040820190506139736000830185612b52565b6139806020830184612b52565b9392505050565b7f4e487b7100000000000000000000000000000000000000000000000000000000600052602260045260246000fd5b600060028204905060018216806139ce57607f821691505b602082108114156139e2576139e1613987565b5b50919050565b6139f181612add565b82525050565b6000602082019050613a0c60008301846139e8565b92915050565b600081519050613a2181612e5f565b92915050565b600060208284031215613a3d57613a3c612ab3565b5b6000613a4b84828501613a12565b91505092915050565b7f6e6f2066756e6473000000000000000000000000000000000000000000000000600082015250565b6000613a8a600883612df3565b9150613a9582613a54565b602082019050919050565b60006020820190508181036000830152613ab981613a7d565b9050919050565b60008190508160005260206000209050919050565b60008154613ae2816139b6565b613aec8186612df3565b94506001821660008114613b075760018114613b1957613b4c565b60ff1983168652602086019350613b4c565b613b2285613ac0565b60005b83811015613b4457815481890152600182019150602081019050613b25565b808801955050505b50505092915050565b7f3078000000000000000000000000000000000000000000000000000000000000600082015250565b6000613b8b600283613555565b9150613b9682613b55565b602082019050919050565b6000819050919050565b600063ffffffff82169050919050565b6000819050919050565b6000613be0613bdb613bd684613ba1565b613bbb565b613bab565b9050919050565b613bf081613bc5565b82525050565b6000613c11613c0c613c0784612abd565b613bbb565b612abd565b9050919050565b6000613c2382613bf6565b9050919050565b6000613c3582613c18565b9050919050565b613c4581613c2a565b82525050565b6000819050919050565b60006bffffffffffffffffffffffff82169050919050565b6000613c88613c83613c7e84613c4b565b613bbb565b613c55565b9050919050565b613c9881613c6d565b82525050565b6000610100820190508181036000830152613cb98188613ad5565b90508181036020830152613ccc81613b7e565b9050613cdb60408301876139e8565b613ce86060830186613be7565b613cf56080830185613c3c565b81810360a0830152613d0681613b7e565b905081810360c0830152613d1981613b7e565b9050613d2860e0830184613c8f565b9695505050505050565b600081905092915050565b50565b6000613d4d600083613d32565b9150613d5882613d3d565b600082019050919050565b6000613d6e82613d40565b9150819050919050565b6000604082019050613d8d6000830185613c3c565b613d9a60208301846139e8565b9392505050565b7f4e487b7100000000000000000000000000000000000000000000000000000000600052601160045260246000fd5b6000613ddb82612b48565b9150613de683612b48565b9250827fffffffffffffffffffffffffffffffffffffffffffffffffffffffffffffffff03821115613e1b57613e1a613da1565b5b828201905092915050565b6000613e3182612b48565b9150613e3c83612b48565b925082821015613e4f57613e4e613da1565b5b82820390509291505056fea2646970667358221220ade8a02f5f5d2658e9d68d47dfd46e4b3b87bdc5b42ee26e1c39a209a649e48a64736f6c63430008080033a26469706673582212202b5e45bed5ec3841a35ae6809eb9db724d19d68417d527b0d3a62b666909d13d64736f6c63430008080033",
  "linkReferences": {},
  "deployedLinkReferences": {}
}