{
  "_format": "hh-sol-artifact-1",
  "contractName": "UpkeepIDConsumer",
  "sourceName": "contracts/UpkeepIDConsumer.sol",
  "abi": [
    {
      "inputs": [
        {
          "internalType": "contract LinkTokenInterface",
          "name": "_link",
          "type": "address"
        },
        {
          "internalType": "address",
          "name": "_registrar",
          "type": "address"
        },
        {
          "internalType": "contract AutomationRegistryInterface",
          "name": "_registry",
          "type": "address"
        }
      ],
      "stateMutability": "nonpayable",
      "type": "constructor"
    },
    {
      "inputs": [],
      "name": "i_link",
      "outputs": [
        {
          "internalType": "contract LinkTokenInterface",
          "name": "",
          "type": "address"
        }
      ],
      "stateMutability": "view",
      "type": "function"
    },
    {
      "inputs": [],
      "name": "i_registry",
      "outputs": [
        {
          "internalType": "contract AutomationRegistryInterface",
          "name": "",
          "type": "address"
        }
      ],
      "stateMutability": "view",
      "type": "function"
    },
    {
      "inputs": [
        {
          "internalType": "string",
          "name": "name",
          "type": "string"
        },
        {
          "internalType": "bytes",
          "name": "encryptedEmail",
          "type": "bytes"
        },
        {
          "internalType": "address",
          "name": "upkeepContract",
          "type": "address"
        },
        {
          "internalType": "uint32",
          "name": "gasLimit",
          "type": "uint32"
        },
        {
          "internalType": "address",
          "name": "adminAddress",
          "type": "address"
        },
        {
          "internalType": "bytes",
          "name": "checkData",
          "type": "bytes"
        },
        {
          "internalType": "bytes",
          "name": "offchainConfig",
          "type": "bytes"
        },
        {
          "internalType": "uint96",
          "name": "amount",
          "type": "uint96"
        }
      ],
      "name": "registerAndPredictID",
      "outputs": [
        {
          "internalType": "uint256",
          "name": "",
          "type": "uint256"
        }
      ],
      "stateMutability": "nonpayable",
      "type": "function"
    },
    {
      "inputs": [],
      "name": "registrar",
      "outputs": [
        {
          "internalType": "address",
          "name": "",
          "type": "address"
        }
      ],
      "stateMutability": "view",
      "type": "function"
    }
  ],
  "bytecode": "0x60e060405263a611ea5660e01b6000806101000a81548163ffffffff021916908360e01c02179055503480156200003557600080fd5b50604051620016e8380380620016e883398181016040528101906200005b9190620001fd565b8273ffffffffffffffffffffffffffffffffffffffff1660808173ffffffffffffffffffffffffffffffffffffffff1660601b815250508173ffffffffffffffffffffffffffffffffffffffff1660a08173ffffffffffffffffffffffffffffffffffffffff1660601b815250508073ffffffffffffffffffffffffffffffffffffffff1660c08173ffffffffffffffffffffffffffffffffffffffff1660601b8152505050505062000259565b600080fd5b600073ffffffffffffffffffffffffffffffffffffffff82169050919050565b60006200013b826200010e565b9050919050565b60006200014f826200012e565b9050919050565b620001618162000142565b81146200016d57600080fd5b50565b600081519050620001818162000156565b92915050565b62000192816200012e565b81146200019e57600080fd5b50565b600081519050620001b28162000187565b92915050565b6000620001c5826200012e565b9050919050565b620001d781620001b8565b8114620001e357600080fd5b50565b600081519050620001f781620001cc565b92915050565b60008060006060848603121562000219576200021862000109565b5b6000620002298682870162000170565b93505060206200023c86828701620001a1565b92505060406200024f86828701620001e6565b9150509250925092565b60805160601c60a05160601c60c05160601c611434620002b46000396000818160dd015281816101280152818161031801526103fc015260008181610101015261025601526000818161021a01526104a201526114346000f3fe608060405234801561001057600080fd5b506004361061004c5760003560e01c80632a663606146100515780632b20e3971461006f5780634c7e9be31461008d5780637d253aff146100bd575b600080fd5b6100596100db565b6040516100669190610543565b60405180910390f35b6100776100ff565b604051610084919061057f565b60405180910390f35b6100a760048036038101906100a29190610800565b610123565b6040516100b4919061094d565b60405180910390f35b6100c56104a0565b6040516100d29190610989565b60405180910390f35b7f000000000000000000000000000000000000000000000000000000000000000081565b7f000000000000000000000000000000000000000000000000000000000000000081565b6000807f000000000000000000000000000000000000000000000000000000000000000073ffffffffffffffffffffffffffffffffffffffff16631865c57d6040518163ffffffff1660e01b815260040160006040518083038186803b15801561018c57600080fd5b505afa1580156101a0573d6000803e3d6000fd5b505050506040513d6000823e3d601f19601f820116820180604052508101906101c99190610e21565b5050505090506000816000015163ffffffff16905060008e8e8e8e8e8e8e8e8e8e8e306040516020016102079c9b9a99989796959493929190610fbd565b60405160208183030381529060405290507f000000000000000000000000000000000000000000000000000000000000000073ffffffffffffffffffffffffffffffffffffffff16634000aea07f00000000000000000000000000000000000000000000000000000000000000008760008054906101000a900460e01b85604051602001610296929190611100565b6040516020818303038152906040526040518463ffffffff1660e01b81526004016102c393929190611192565b602060405180830381600087803b1580156102dd57600080fd5b505af11580156102f1573d6000803e3d6000fd5b505050506040513d601f19601f8201168201806040525081019061031591906111d0565b507f000000000000000000000000000000000000000000000000000000000000000073ffffffffffffffffffffffffffffffffffffffff16631865c57d6040518163ffffffff1660e01b815260040160006040518083038186803b15801561037c57600080fd5b505afa158015610390573d6000803e3d6000fd5b505050506040513d6000823e3d601f19601f820116820180604052508101906103b99190610e21565b90919250909150905050809350506000836000015163ffffffff1690506001836103e3919061122c565b8114156104565760006001436103f99190611282565b407f00000000000000000000000000000000000000000000000000000000000000008560405160200161042e93929190611355565b6040516020818303038152906040528051906020012060001c90508095505050505050610491565b6040517f08c379a0000000000000000000000000000000000000000000000000000000008152600401610488906113de565b60405180910390fd5b9b9a5050505050505050505050565b7f000000000000000000000000000000000000000000000000000000000000000081565b600073ffffffffffffffffffffffffffffffffffffffff82169050919050565b6000819050919050565b60006105096105046104ff846104c4565b6104e4565b6104c4565b9050919050565b600061051b826104ee565b9050919050565b600061052d82610510565b9050919050565b61053d81610522565b82525050565b60006020820190506105586000830184610534565b92915050565b6000610569826104c4565b9050919050565b6105798161055e565b82525050565b60006020820190506105946000830184610570565b92915050565b6000604051905090565b600080fd5b600080fd5b600080fd5b600080fd5b6000601f19601f8301169050919050565b7f4e487b7100000000000000000000000000000000000000000000000000000000600052604160045260246000fd5b610601826105b8565b810181811067ffffffffffffffff821117156106205761061f6105c9565b5b80604052505050565b600061063361059a565b905061063f82826105f8565b919050565b600067ffffffffffffffff82111561065f5761065e6105c9565b5b610668826105b8565b9050602081019050919050565b82818337600083830152505050565b600061069761069284610644565b610629565b9050828152602081018484840111156106b3576106b26105b3565b5b6106be848285610675565b509392505050565b600082601f8301126106db576106da6105ae565b5b81356106eb848260208601610684565b91505092915050565b600080fd5b600080fd5b60008083601f840112610714576107136105ae565b5b8235905067ffffffffffffffff811115610731576107306106f4565b5b60208301915083600182028301111561074d5761074c6106f9565b5b9250929050565b61075d8161055e565b811461076857600080fd5b50565b60008135905061077a81610754565b92915050565b600063ffffffff82169050919050565b61079981610780565b81146107a457600080fd5b50565b6000813590506107b681610790565b92915050565b60006bffffffffffffffffffffffff82169050919050565b6107dd816107bc565b81146107e857600080fd5b50565b6000813590506107fa816107d4565b92915050565b60008060008060008060008060008060006101008c8e031215610826576108256105a4565b5b60008c013567ffffffffffffffff811115610844576108436105a9565b5b6108508e828f016106c6565b9b505060208c013567ffffffffffffffff811115610871576108706105a9565b5b61087d8e828f016106fe565b9a509a505060406108908e828f0161076b565b98505060606108a18e828f016107a7565b97505060806108b28e828f0161076b565b96505060a08c013567ffffffffffffffff8111156108d3576108d26105a9565b5b6108df8e828f016106fe565b955095505060c08c013567ffffffffffffffff811115610902576109016105a9565b5b61090e8e828f016106fe565b935093505060e06109218e828f016107eb565b9150509295989b509295989b9093969950565b6000819050919050565b61094781610934565b82525050565b6000602082019050610962600083018461093e565b92915050565b600061097382610510565b9050919050565b61098381610968565b82525050565b600060208201905061099e600083018461097a565b92915050565b600080fd5b6000815190506109b881610790565b92915050565b6000815190506109cd816107d4565b92915050565b6109dc81610934565b81146109e757600080fd5b50565b6000815190506109f9816109d3565b92915050565b6000819050919050565b610a12816109ff565b8114610a1d57600080fd5b50565b600081519050610a2f81610a09565b92915050565b60008115159050919050565b610a4a81610a35565b8114610a5557600080fd5b50565b600081519050610a6781610a41565b92915050565b60006101408284031215610a8457610a836109a4565b5b610a8f610140610629565b90506000610a9f848285016109a9565b6000830152506020610ab3848285016109be565b6020830152506040610ac7848285016109ea565b6040830152506060610adb848285016109be565b6060830152506080610aef848285016109ea565b60808301525060a0610b03848285016109a9565b60a08301525060c0610b17848285016109a9565b60c08301525060e0610b2b84828501610a20565b60e083015250610100610b40848285016109a9565b61010083015250610120610b5684828501610a58565b6101208301525092915050565b600062ffffff82169050919050565b610b7b81610b63565b8114610b8657600080fd5b50565b600081519050610b9881610b72565b92915050565b600061ffff82169050919050565b610bb581610b9e565b8114610bc057600080fd5b50565b600081519050610bd281610bac565b92915050565b600081519050610be781610754565b92915050565b60006101a08284031215610c0457610c036109a4565b5b610c0f6101a0610629565b90506000610c1f848285016109a9565b6000830152506020610c33848285016109a9565b6020830152506040610c47848285016109a9565b6040830152506060610c5b84828501610b89565b6060830152506080610c6f84828501610bc3565b60808301525060a0610c83848285016109be565b60a08301525060c0610c97848285016109a9565b60c08301525060e0610cab848285016109a9565b60e083015250610100610cc0848285016109a9565b61010083015250610120610cd6848285016109ea565b61012083015250610140610cec848285016109ea565b61014083015250610160610d0284828501610bd8565b61016083015250610180610d1884828501610bd8565b6101808301525092915050565b600067ffffffffffffffff821115610d4057610d3f6105c9565b5b602082029050602081019050919050565b6000610d64610d5f84610d25565b610629565b90508083825260208201905060208402830185811115610d8757610d866106f9565b5b835b81811015610db05780610d9c8882610bd8565b845260208401935050602081019050610d89565b5050509392505050565b600082601f830112610dcf57610dce6105ae565b5b8151610ddf848260208601610d51565b91505092915050565b600060ff82169050919050565b610dfe81610de8565b8114610e0957600080fd5b50565b600081519050610e1b81610df5565b92915050565b60008060008060006103408688031215610e3e57610e3d6105a4565b5b6000610e4c88828901610a6d565b955050610140610e5e88828901610bed565b9450506102e086015167ffffffffffffffff811115610e8057610e7f6105a9565b5b610e8c88828901610dba565b93505061030086015167ffffffffffffffff811115610eae57610ead6105a9565b5b610eba88828901610dba565b925050610320610ecc88828901610e0c565b9150509295509295909350565b600081519050919050565b600082825260208201905092915050565b60005b83811015610f13578082015181840152602081019050610ef8565b83811115610f22576000848401525b50505050565b6000610f3382610ed9565b610f3d8185610ee4565b9350610f4d818560208601610ef5565b610f56816105b8565b840191505092915050565b600082825260208201905092915050565b6000610f7e8385610f61565b9350610f8b838584610675565b610f94836105b8565b840190509392505050565b610fa881610780565b82525050565b610fb7816107bc565b82525050565b6000610120820190508181036000830152610fd8818f610f28565b90508181036020830152610fed818d8f610f72565b9050610ffc604083018c610570565b611009606083018b610f9f565b611016608083018a610570565b81810360a083015261102981888a610f72565b905081810360c083015261103e818688610f72565b905061104d60e0830185610fae565b61105b610100830184610570565b9d9c50505050505050505050505050565b60007fffffffff0000000000000000000000000000000000000000000000000000000082169050919050565b6000819050919050565b6110b36110ae8261106c565b611098565b82525050565b600081519050919050565b600081905092915050565b60006110da826110b9565b6110e481856110c4565b93506110f4818560208601610ef5565b80840191505092915050565b600061110c82856110a2565b60048201915061111c82846110cf565b91508190509392505050565b600061114361113e611139846107bc565b6104e4565b610934565b9050919050565b61115381611128565b82525050565b6000611164826110b9565b61116e8185610f61565b935061117e818560208601610ef5565b611187816105b8565b840191505092915050565b60006060820190506111a76000830186610570565b6111b4602083018561114a565b81810360408301526111c68184611159565b9050949350505050565b6000602082840312156111e6576111e56105a4565b5b60006111f484828501610a58565b91505092915050565b7f4e487b7100000000000000000000000000000000000000000000000000000000600052601160045260246000fd5b600061123782610934565b915061124283610934565b9250827fffffffffffffffffffffffffffffffffffffffffffffffffffffffffffffffff03821115611277576112766111fd565b5b828201905092915050565b600061128d82610934565b915061129883610934565b9250828210156112ab576112aa6111fd565b5b828203905092915050565b6000819050919050565b6112d16112cc826109ff565b6112b6565b82525050565b60008160601b9050919050565b60006112ef826112d7565b9050919050565b6000611301826112e4565b9050919050565b6113196113148261055e565b6112f6565b82525050565b60008160e01b9050919050565b60006113378261131f565b9050919050565b61134f61134a82610780565b61132c565b82525050565b600061136182866112c0565b6020820191506113718285611308565b601482019150611381828461133e565b600482019150819050949350505050565b7f6175746f2d617070726f76652064697361626c65640000000000000000000000600082015250565b60006113c8601583610ee4565b91506113d382611392565b602082019050919050565b600060208201905081810360008301526113f7816113bb565b905091905056fea26469706673582212205b5e961bdc6a4ad94d10dc96294876fa745410bceb4a192cb8260279fc77aa4864736f6c63430008080033",
  "linkReferences": {},
  "deployedLinkReferences": {}
}